:100000000C945D000C9462020C948F020C94850099
:100010000C9485000C9485000C9485000C9485004C
:100020000C9485000C9485000C9485000C9485003C
:100030000C9485000C9485000C9485000C9485002C
:100040000C94BC020C9485000C9474050C94A605C9
:100050000C9485000C9485000C9485000C9485000C
:100060000C9485000C94850000000008000201003B
:100070000003040700000000000000000102040863
:100080001020408001020408102001020408102002
:10009000040404040404040402020202020203032E
:1000A0000303030300000000250028002B000000CC
:1000B0000000240027002A00D60511241FBECFEF20
:1000C000D8E0DEBFCDBF11E0A0E0B1E0EAE4FEE0A1
:1000D00002C005900D92A235B107D9F726E0A2E53E
:1000E000B1E001C01D92AF3AB207E1F710E0CAEBF0
:1000F000D0E004C02297FE010E941F07C83BD10731
:10010000C9F70E941A060C9423070C94000081E0A2
:1001100090E09093030680930206089584B19AB10B
:10012000986F9AB9876084B9089584B19AB197702D
:100130009AB9887F84B90895CF93C82F682F6170CA
:100140008AE00E94F9036C2F627083E00E94F90339
:100150006C2F647084E00E94F9036C2F687085E056
:100160000E94F9036C2F607186E00E94F9036C2FE6
:10017000607287E00E94F9036C2F607488E00E942F
:10018000F9036C2F607889E00E94F90384E190E024
:10019000CF910C94510363B162FB662760F959B1AA
:1001A00049B139B129B189B193B19170881F8827BC
:1001B000881F8295880F807E70E4979F800D1124A0
:1001C000860F53FB992790F9990F890F44FB9927C4
:1001D00090F9990F990F890F35FB992790F938E01D
:1001E000939F800D112426FB992790F970E1979F2A
:1001F000800D112493B19695917020E8929F8019FB
:1002000011240895EF92FF920F931F93CF93DF93E2
:1002100026E040E052EC61E070E082E196E00E946E
:1002200012050E948E0061E0809100010E94C003CF
:10023000C4E0D1E061E088810E94C00306E011E0E3
:1002400061E0F80180810E94C00382E0E82E81E035
:10025000F82E61E0F70180810E94C00360E08BE02E
:100260000E94C00361E0F70180810E94F90360E011
:10027000F80180810E94F90360E088810E94F903FF
:1002800043E050E067E870E080E00E94420268E0EE
:1002900071E082E196E0DF91CF911F910F91FF9085
:1002A000EF900C946B06CF93DF93C0E0D1E061E058
:1002B00088810E94F90382E390E00E94510360E08C
:1002C00088810E94F90382E390E0DF91CF910C9442
:1002D00051030F931F93CF93DF938C01C0E0D0E0C5
:1002E000C017D10724F40E9453012196F9CFDF9162
:1002F000CF911F910F91089510920306109202065C
:1003000081E090E00E9469018091020690910306CD
:10031000892BB1F381E090E00C9451030F931F936C
:10032000CF93DF930E948E0082E390E00E945103FE
:1003300080E00E949C0061E171E082E196E00E9411
:100340006B0602E011E060E0F80180810E94F90391
:1003500084E690E00E94510384E090E00E946901ED
:1003600061E0809104010E94F90384E090E00E9422
:100370006901C6E0D1E061E088810E94F90384E070
:1003800090E00E94690161E0F80180810E94F90318
:1003900086E090E00E94510380E00E949C000E9451
:1003A0007C0183E60E949C000E947C018CEF0E94ED
:1003B0009C000E947C018FEB0E949C000E947C01AB
:1003C00084E40E949C000E947C0183E30E949C00C4
:1003D0000E947C0184E40E949C000E947C0186E4CF
:1003E0000E949C000E947C010E94950060E0888130
:1003F000DF91CF911F910F910C94F90368E271E0A6
:1004000082E196E00E946B0668EE73E080E090E087
:100410000E9429030E948E01109203061092020688
:10042000C2E5D1E08091020690910306892B29F460
:1004300081E090E00E946901F5CF0E94CB0080939B
:100440000406809104068993109203061092020616
:1004500085E0CC36D80731F7C2E5D1E069914AE0B2
:1004600050E082E196E00E94E30685E0CC36D807B2
:10047000A9F76DE271E082E196E00E946B060E94AE
:100480007C01FDCF8230E8F4E82FF0E0EE0FFF1F93
:10049000EB5FF94F71836083813041F08091690097
:1004A0008C7F842B80936900E89A0895809169007D
:1004B000440F551F440F551F837F842B8093690081
:1004C000E99A08951F920F920FB60F9211242F935D
:1004D0003F934F935F936F937F938F939F93AF93CC
:1004E000BF93EF93FF938091050690910606892BA9
:1004F00029F0E0910506F09106060995FF91EF912C
:10050000BF91AF919F918F917F916F915F914F912B
:100510003F912F910F900FBE0F901F9018951F9233
:100520000F920FB60F9211242F933F934F935F9327
:100530006F937F938F939F93AF93BF93EF93FF93AB
:100540008091070690910806892B29F0E091070613
:10055000F09108060995FF91EF91BF91AF919F919E
:100560008F917F916F915F914F913F912F910F905C
:100570000FBE0F901F9018951F920F920FB60F92FB
:1005800011242F933F938F939F93AF93BF938091A9
:100590000A0690910B06A0910C06B0910D063091C1
:1005A000090623E0230F2D3720F40196A11DB11D6C
:1005B00005C026E8230F0296A11DB11D2093090650
:1005C00080930A0690930B06A0930C06B0930D0639
:1005D00080910E0690910F06A0911006B091110621
:1005E0000196A11DB11D80930E0690930F06A09356
:1005F0001006B0931106BF91AF919F918F913F91DB
:100600002F910F900FBE0F901F9018953FB7F89441
:1006100080910E0690910F06A0911006B0911106E0
:1006200026B5A89B05C02F3F19F00196A11DB11D4D
:100630003FBF6627782F892F9A2F620F711D811D6A
:10064000911D42E0660F771F881F991F4A95D1F7C9
:100650000895CF92DF92EF92FF92CF93DF936B01D9
:100660007C010E940603EB01C114D104E104F104F2
:1006700089F00E94FA060E9406036C1B7D0B683EFF
:10068000734090F381E0C81AD108E108F108C8511D
:10069000DC4FEACFDF91CF91FF90EF90DF90CF90CA
:1006A00008958230910538F0880F991F880F991F9F
:1006B00005970197F1F70895789484B5826084BD19
:1006C00084B5816084BD85B5826085BD85B5816056
:1006D00085BDEEE6F0E0808181608083E1E8F0E0B6
:1006E0001082808182608083808181608083E0E8E5
:1006F000F0E0808181608083E1EBF0E080818460C4
:100700008083E0EBF0E0808181608083EAE7F0E0C5
:100710008081846080838081826080838081816029
:1007200080838081806880831092C1000895833027
:1007300081F028F4813099F08230A1F0089587305B
:10074000A9F08830B9F08430D1F4809180008F7D99
:1007500003C0809180008F7780938000089584B5D6
:100760008F7702C084B58F7D84BD08958091B000DD
:100770008F7703C08091B0008F7D8093B000089583
:10078000CF93DF9390E0FC01E458FF4F2491FC01EC
:10079000E057FF4F8491882349F190E0880F991F1B
:1007A000FC01E255FF4FA591B4918C559F4FFC0180
:1007B000C591D4919FB7611108C0F8948C91209590
:1007C00082238C93888182230AC0623051F4F8948A
:1007D0008C91322F309583238C938881822B888350
:1007E00004C0F8948C91822B8C939FBFDF91CF91A2
:1007F00008950F931F93CF93DF931F92CDB7DEB76A
:10080000282F30E0F901E859FF4F8491F901E458AD
:10081000FF4F1491F901E057FF4F04910023C9F0F5
:10082000882321F069830E9497036981E02FF0E01B
:10083000EE0FFF1FEC55FF4FA591B4919FB7F894B1
:100840008C91611103C01095812301C0812B8C9381
:100850009FBF0F90DF91CF911F910F910895FC01E1
:10086000818D228D90E0805C9F4F821B91098F7358
:1008700099270895FC01918D828D981731F0828D12
:10088000E80FF11D858D90E008958FEF9FEF08959B
:10089000FC01918D828D981761F0828DDF01A80F88
:1008A000B11D5D968C91928D9F5F9F73928F90E0AA
:1008B00008958FEF9FEF08958CEC95E0892B49F018
:1008C00080E090E0892B29F00E94CC0581110C94E6
:1008D00000000895FC01848DDF01A80FB11DA35A0B
:1008E000BF4F2C91848D90E001968F739927848F50
:1008F000A689B7892C93A089B1898C9180648C9347
:10090000938D848D981306C00288F389E02D808131
:100910008F7D80830895CF93DF93EC01888D8823AA
:10092000C9F0EA89FB89808185FD05C0A889B9895C
:100930008C9186FD0FC00FB607FCF5CF808185FF37
:10094000F2CFA889B9898C9185FFEDCFCE010E94A5
:100950006A04E7CFDF91CF910895CF92DF92FF92A3
:100960000F931F93CF93DF931F92CDB7DEB76C0128
:1009700081E0D60158968C9358975B969C915B9733
:100980005C968C915C97981307C05096ED91FC9102
:100990005197808185FD2EC0F601038D10E00F5F19
:1009A0001F4F0F731127F02EF601848DF81211C01E
:1009B0000FB607FCF9CFD6015096ED91FC915197F7
:1009C000808185FFF1CFC60169830E946A04698135
:1009D000EBCF838DE80FF11DE35AFF4F6083D60103
:1009E0005B960C935B975296ED91FC9153978081A7
:1009F00080620CC0D6015696ED91FC9157976083AA
:100A00005096ED91FC91519780818064808381E0C4
:100A100090E00F90DF91CF911F910F91FF90DF90A9
:100A2000CF900895BF92CF92DF92EF92FF92CF9333
:100A3000DF93EC016A017B01B22EE889F98982E03B
:100A40008083411581EE580761057105A1F060E0D2
:100A500079E08DE390E0A70196010E94FB0621500A
:100A60003109410951095695479537952795211523
:100A700080E1380798F0E889F989108260E874E825
:100A80008EE190E0A70196010E94FB0621503109FA
:100A9000410951095695479537952795EC85FD8570
:100AA0003083EE85FF852083188EEC89FD89B08226
:100AB000EA89FB89808180618083EA89FB89808162
:100AC00088608083EA89FB89808180688083EA89E5
:100AD000FB8980818F7D8083DF91CF91FF90EF90A4
:100AE000DF90CF90BF9008951F920F920FB60F9294
:100AF00011242F938F939F93EF93FF93E0912206FE
:100B0000F09123068081E0912806F091290682FD6C
:100B100012C0908180912B068F5F8F7320912C06DD
:100B2000821751F0E0912B06F0E0EE5EF94F958FC1
:100B300080932B0601C08081FF91EF919F918F914F
:100B40002F910F900FBE0F901F9018951F920F922C
:100B50000FB60F9211242F933F934F935F936F9390
:100B60007F938F939F93AF93BF93EF93FF9382E114
:100B700096E00E946A04FF91EF91BF91AF919F911F
:100B80008F917F916F915F914F913F912F910F9036
:100B90000FBE0F901F90189582E196E00E942F04DF
:100BA00021E0892B09F420E0822F08951092150688
:100BB0001092140688EE93E0A0E0B0E08093160651
:100BC00090931706A0931806B093190685E391E059
:100BD000909313068093120685EC90E090931F0685
:100BE00080931E0684EC90E090932106809320066B
:100BF00080EC90E0909323068093220681EC90E0B5
:100C0000909325068093240682EC90E0909327062B
:100C10008093260686EC90E0909329068093280620
:100C200010922B0610922C0610922D0610922E0672
:100C3000089508950E945C030E9419060E94020113
:100C4000CCE5D4E00E94FE012097E1F30E945C0411
:100C5000F9CFCF92DF92EF92FF920F931F93CF9332
:100C6000DF936C017A01EB01E60EF71E00E010E065
:100C7000CE15DF0561F06991D601ED91FC910190EF
:100C8000F081E02DC6010995080F191FF1CFC801A9
:100C9000DF91CF911F910F91FF90EF90DF90CF9058
:100CA00008956115710581F0DB010D900020E9F7D1
:100CB000AD0141505109461B570BDC01ED91FC91F0
:100CC0000280F381E02D099480E090E0089561E4D2
:100CD00071E00C9451060F931F93CF93DF93EC01B7
:100CE0000E9451068C01CE010E946706800F911F61
:100CF000DF91CF911F910F9108958F929F92AF92A4
:100D0000BF92CF92DF92EF92FF920F931F93CF93F8
:100D1000DF93CDB7DEB7A1970FB6F894DEBF0FBE55
:100D2000CDBF7C01C42EE52FCB01D22E19A221E02C
:100D30002D1510F02AE0D22E8E010F5D1F4F8D2C45
:100D4000912CA12CB12C6C2D7E2FA50194010E9419
:100D5000FB068C2DD29E80191124015011098A3076
:100D600014F4805D01C0895CF80180832115310590
:100D70004105510521F0C22EE32FCA01E4CFB8018D
:100D8000C7010E945106A1960FB6F894DEBF0FBEB0
:100D9000CDBFDF91CF911F910F91FF90EF90DF902A
:100DA000CF90BF90AF909F908F90089521153105FF
:100DB00041F4DC01ED91FC910190F081E02D642F74
:100DC00009940C947D060F931F93CF93DF93EC014E
:100DD0009A01462F50E060E070E00E94D6068C0138
:100DE000CE010E946706800F911FDF91CF911F9166
:100DF0000F9108950895A1E21A2EAA1BBB1BFD01B5
:100E00000DC0AA1FBB1FEE1FFF1FA217B307E407E9
:100E1000F50720F0A21BB30BE40BF50B661F771F41
:100E2000881F991F1A9469F7609570958095909521
:100E30009B01AC01BD01CF010895EE0FFF1F05908E
:0A0E4000F491E02D0994F894FFCF1F
:100E4A000E0013000C0012005365747570204F4B8E
:100E5A0000456E746572696E6720436F7020546531
:100E6A0073742044554D50005741495400454E442F
:100E7A000000000000AD0429062F0448043A048B40
:100E8A00040D0A006E616E00696E66006F76660078
:020E9A002E0028
:00000001FF
