:100000000C942B020C9453020C9453020C94591927
:100010000C9459190C9459190C9453020C94B00770
:100020000C9453020C9453020C9453020C949818A1
:100030000C9453020C9453020C9453020C945302EC
:100040000C942C100C9453020C94E30E0C94BD0EE3
:100050000C9453020C9453020C9453020C945302CC
:100060000C944D1A0C945302DF08EE08FF08140993
:100070001F092A0939090F0B030B070B0B0B0F0B79
:10008000130B170B084AD73B3BCE016E84BCBFFD58
:10009000C12F3D6C74319ABD56833DDA3D00C77F58
:1000A00011BED9E4BB4C3E916BAAAABE00000080F1
:1000B0003F005365747570206F6B210053656E733C
:1000C0006F7273204F4B2E2E2E2E00435020524520
:1000D000414459202E2E2E0053657269616C2063B5
:1000E0006F6D6D206F6B2100536F66747761726561
:1000F00053657269616C206F766572666C6F7721EB
:1001000000506F736974696F6E3D00416464696E7D
:1001100067204465766963652069643D0043524306
:10012000204572726F72212121200050726F677218
:10013000616D205472616E73666572206F6B005042
:10014000726F6772616D2052656164206F6B00523F
:100150006561642050726F6772616D00496E7661EF
:100160006C69642053697A652E2061626F72740035
:10017000476574206E65772070726F6772616D00DD
:10018000457865637574652050726F6772616D00A4
:100190004C4344204F4B2E2E2E2E000000000024F6
:1001A0000027002A0000000000230026002900008C
:1001B000000000250028002B0004040404040404AB
:1001C0000402020202020203030303030301020406
:1001D00008102040800102040810200102040810C9
:1001E000206E65772056616C75653D004F6C64200C
:1001F00056616C75653D0056616C75653D005365D3
:100200007420706172616D206964783D006E65775D
:100210002056616C75653D004F6C642056616C75AD
:10022000653D0056616C75653D00536574207061D5
:1002300072616D206964783D00424D503138302044
:10024000696E6974206661696C0A0A00424D50311A
:10025000383020696E697420737563636573730049
:10026000444854205365747570206F6B004C4344B0
:10027000205345542050323D004C434420534554B4
:100280002050313D0053747261696768743A0064AC
:10029000697374616E63653A00537472616967686B
:1002A0007442656172696E673A0042656172696E97
:1002B000673A003D3D3D3D3D3D3D3D3D3D3D3D3D84
:1002C0003D3D3D3D3D3D3D0050524F4752414D204B
:1002D0005445524D494E4154454421212100535427
:1002E0004F505045442121210050524F4752414D1B
:1002F0004D494E47004350205245414459202E2E2F
:100300002E00536F66747761726553657269616C14
:10031000206F766572666C6F772100536F66747715
:1003200061726553657269616C206F766572666C87
:100330006F7721004465766963653A00204E554C1D
:100340004C20444556494345204E4F5420464F5576
:100350004E443A0053455420496E76616C696420DE
:10036000446576696365200047455420496E76618F
:100370006C6964204465766963652000444556498C
:10038000443A00434D4449443A00464958205641B6
:10039000523A0052657475726E3D00436865636B36
:1003A000204F706E643D00506172616D3D0050548D
:1003B0006F436865636B3D0074657374696E673A7B
:1003C000006572726F72207374617274696E672057
:1003D00074656D70657261747572650A006572721C
:1003E0006F722072657472696576696E67207465D4
:1003F0006D70657261747572650A006572726F72F4
:10040000207374617274696E67207072657373759E
:1004100072650A006572726F722072657472696526
:1004200076696E672070726573737572650A000075
:1004300000000800020100000304070000000000A3
:100440000000004649464F206F766572666C6F77F4
:100450002100272DF52C11241FBECFEFD8E0DEBFE1
:10046000CDBF12E0A0E0B1E0EAE8F8E602C00590F6
:100470000D92A430B107D9F724E0A4E0B2E001C0A6
:100480001D92A338B207E1F712E0CAE2D2E004C03D
:100490002197FE010E940B32C932D107C9F70E9491
:1004A0006B1D0C9438340C9400009091B50280912F
:1004B000B402981750F4E92FF0E0EA54FD4F208180
:1004C00030E09F5F9093B50202C02FEF3FEFC9016C
:1004D00008958091B40290E02091B502821B9109A9
:1004E0000895089580E090E00895CF92DF92EF9212
:1004F000FF920F931F93CF93DF937C01262F972FAB
:100500008A018091FD02882391F0C62FD72F6E01BA
:10051000C40ED51ECC15DD0571F06991D701ED91A2
:10052000FC910190F081E02DC7010995F3CF642F74
:10053000822F0E947B1BC801DF91CF911F910F91E9
:10054000FF90EF90DF90CF900895CF93DF931F92AD
:10055000CDB7DEB769832091FD022223D1F020912F
:100560002003203240F021E030E0FC01338322837D
:1005700080E090E015C08091FE02E82FF0E0E150AD
:10058000FD4F998190838F5F8093FE0280932003BB
:1005900005C061E0CE0101960E947B1B81E090E0E6
:1005A0000F90DF91CF9108954F925F926F927F925B
:1005B0008F929F92AF92BF92CF92DF92EF92FF9273
:1005C0000F931F93CF93DF93CDB7DEB727970FB667
:1005D000F894DEBF0FBECDBF809187029091880254
:1005E00024EFF22EF9822EE22A83BE016F5F7F4F45
:1005F0000E94B71C882309F465C165E070E080E0C3
:1006000090E00E94E60F009187021091880286EF29
:10061000E82EE98242E0BE016F5F7F4FC8010E9471
:100620007610882309F44BC1698170E080E090E086
:100630000E94D62D20E030E040E853E40E94352EA1
:100640004B015C018A81682F70E080E090E00E949D
:10065000D62D9B01AC01C501B4010E948E2FF8017B
:10066000228D338D448D558D0E948D2FF801268962
:100670003789408D518D0E94352E4B015C01F80168
:1006800022A133A144A155A10E948E2F9B01AC0150
:10069000F801668D778D80A191A10E946C309B013D
:1006A000AC01C501B4010E948E2F4B015C01609327
:1006B000A5027093A6028093A7029093A80280914E
:1006C000870290918802F982FA82BE016F5F7F4FA4
:1006D0000E94B71C882309F4EFC06AE170E080E053
:1006E00090E00E94E60F0091870210918802E98253
:1006F00043E0BE016F5F7F4FC8010E9476108823E0
:1007000009F4D7C020E030E048EC51E4C501B40161
:100710000E948D2F6B017C019B01AC010E94352E44
:100720004B015C01698170E080E090E00E94D62D71
:1007300020E030E040E853E40E94352E2B013C01DC
:100740006A8170E080E090E00E94D62D9B01AC01B0
:10075000C301B2010E948E2F2B013C016B8170E01E
:1007600080E090E00E94D62D20E030E040E85BE39E
:100770000E94352E9B01AC01C301B2010E948E2F55
:100780006C837D838E839F83F80126A537A540A9BE
:1007900051A9C501B4010E94352E2B013C01F8017D
:1007A00022A533A544A555A5C701B6010E94352E43
:1007B0009B01AC01C301B2010E948E2FF80126A15A
:1007C00037A140A551A50E948E2F9B01AC016C81E1
:1007D0007D818E819F810E948D2F2B013C01F8012C
:1007E00022AD33AD44AD55ADC501B4010E94352EE7
:1007F0004B015C01F80126A937A940AD51ADC701F5
:10080000B6010E94352E9B01AC01C501B4010E94C6
:100810008E2FF80122A933A944A955A90E948E2F31
:100820009B01AC01C301B2010E946C306B017C01E1
:100830005801F6E4AF0EB11C9B01AC010E94352EAD
:10084000F50120813181428153810E94352E4B0177
:100850005C01F801EE5BFF4F2081318142815381C1
:10086000C701B6010E94352E9B01AC01C501B40140
:100870000E948E2FF801FE962081318142815381A2
:100880000E948E2F6093A1027093A2028093A30214
:100890009093A40225EC3DE947E75FE30E946C30AA
:1008A00060939D0270939E0280939F029093A0029A
:1008B0000DC084E194E008C08BEF93E005C08DED9E
:1008C00093E002C081EC93E00E94511227960FB68C
:1008D000F894DEBF0FBECDBFDF91CF911F910F9176
:1008E000FF90EF90DF90CF90BF90AF909F908F9050
:1008F0007F906F905F904F9008954F925F926F92AC
:100900007F928F929F92AF92BF92CF92DF92EF929F
:10091000FF920F931F93CF93DF93CDB7DEB72A9744
:100920000FB6F894DEBF0FBECDBF7C010E94201031
:10093000D7011C960D911D912D913C911F97AB01F4
:10094000BC01401B510B620B730B1A968D919C914D
:100950001B97092E000CAA0BBB0B84179507A60743
:10096000B70708F043C1F701008111810115110596
:1009700009F4FEC01A821982812CF5E09F2EABE0AB
:10098000CA2ED12CB3E2AB2EB12C8DE1682E712C86
:10099000D8011896ED91FC911997908114968C913D
:1009A0001497892B80831696ED91FC91179790816F
:1009B00014968C911497809589238083C6010197A2
:1009C000F1F71696ED91FC911797908114968C9102
:1009D0001497892B8083C5010197F1F71696ED9145
:1009E000FC911797908114968C9114978095892388
:1009F00080831896ED91FC911997908114968C91B3
:100A00008095892380830E94C10FDC01CB01805B2C
:100A1000994BAF4FBF4FF80186879787A08BB18B5B
:100A2000D8011A96ED91FC911B97908115968C91A7
:100A30008923D9F00E94C10FF801268537854089A6
:100A40005189261737074807590750F70EC00E94EB
:100A5000C10FD8011E962D913D914D915C915197FA
:100A6000261737074807590788F1D8011A96ED91DC
:100A7000FC911B97908115968C91892341F30E94DC
:100A8000C10FF80124853585DC01CB01820F931F4E
:100A9000A11DB11D86879787A08BB18BD8011A96AF
:100AA000ED91FC911B97908115968C91892399F07B
:100AB0000E94C10FD8011E962D913D914D915C91E0
:100AC0005197261737074807590740F79A94F801B6
:100AD000648575853EC00E94C10FF8012485358567
:100AE000A9014550510926853785DA01A21BB30BB0
:100AF0006A0F7B1F6115710549F3811002C080E008
:100B00001FC0882D282F30E0F9013197EE0FFF1F0D
:100B100041E050E04C0F5D1FE40FF51F4081518113
:100B20004617570768F4220F331FE1E0F0E0EC0F9F
:100B3000FD1FE20FF31F51834083815019F7DFCF70
:100B4000FE013196E80FF11DE80FF11D71836083FE
:100B50008394891498F4672F772766956695C30167
:100B6000861B970BBC0180E090E00E94E60F10CF3F
:100B70009FEF8FEFF7019087818738C0892D8E7F97
:100B8000FE01E80FF11D018112810FB6F894DEBF5E
:100B90000FBECDBF0E942010D7011C966D937D9390
:100BA0008D939C931F97C8014C9669E370E00E9457
:100BB000F73181E090E0012B11F480E090E08B01AF
:100BC000681779070CF48C010115110561F00E947A
:100BD0002010D7011C966D937D938D939C931F9746
:100BE000902F812FC7CF03E610E0F1CF2A960FB6E2
:100BF000F894DEBF0FBECDBFDF91CF911F910F9153
:100C0000FF90EF90DF90CF90BF90AF909F908F902C
:100C10007F906F905F904F9008952F923F924F92E8
:100C20005F926F927F928F929F92AF92BF92CF927C
:100C3000DF92EF92FF920F931F93CF93DF9300D039
:100C400000D000D0CDB7DEB7F82EE62E4D83690177
:100C50000E9420104B015C01312C1E82222423941F
:100C60009D81892F90E09C838B832801612C712CBE
:100C70004D81341608F053C02092FD02F0921F03FC
:100C80001092FE02109220036E2D8EEB93E00E94D4
:100C9000A50281E00E9479122092FD02F0921F03CA
:100CA0001092FE02109220036B817C8163197109FE
:100CB0006132710514F060E270E08F2D0E94D6124F
:100CC0009091B4028091B502981719F101151105A0
:100CD00099F4F6012E81E20FF11D27FDFA95FA83B2
:100CE000E9838EEB93E00E945502E981FA818083CB
:100CF0002E812F5F2E83E4CF0E942010DC01CB01D8
:100D000088199909AA09BB0984159505A605B7058F
:100D100000F38D81813208F080E2380EA9CF0115F1
:100D20001105D9F00E942010DC01CB018819990926
:100D3000AA09BB0920E030E080179107A207B3079A
:100D400060F04D81842F90E04E81242F440F330BAF
:100D50002817390714F42FEF2E838E8126960FB6AD
:100D6000F894DEBF0FBECDBFDF91CF911F910F91E1
:100D7000FF90EF90DF90CF90BF90AF909F908F90BB
:100D80007F906F905F904F903F902F9008950F93BA
:100D90001F93CF93DF93EC019C012F5F3F4F08EE31
:100DA00013E042E062E788810E940D06298130E06D
:100DB000322F22278A81A901482BCA01DF91CF91C6
:100DC0001F910F910895FF920F931F93CF93DF937D
:100DD0001F92CDB7DEB7FC01F08008EE13E09E0154
:100DE0002F5F3F4F41E06AE68F2D0E940D0619816B
:100DF0001460198381E08093FD02F0921F0310922A
:100E0000FE02109220036AE68EEB93E00E94A50298
:100E1000612F8EEB93E00E94A50281E00E9479127F
:100E20000F90DF91CF911F910F91FF900895611561
:100E3000710539F4DC011496ED91FC9115976081F0
:100E400071816436710511F080E0089581E00895A4
:100E5000DC011496ED91FC91159780819181863487
:100E60009105B9F088349105A1F08F3891053CF4D3
:100E70008D38910574F48838910549F40AC0823997
:100E8000910539F024F08B5A9109049710F080E015
:100E9000089581E00895FC0184819581892B09F4EE
:100EA0000895A481B58150968D919C91519700979A
:100EB00019F095838483F5CF0895CF92DF92EF9256
:100EC000FF920F931F93CF93DF93EC01EC81FD8191
:100ED00006851785C088D188E288F388E114F1047B
:100EE00091F0C7010E944B07F70184819581892BFE
:100EF00021F0C7010E945D07F7CFEC81FD81828957
:100F000093890E94C1320115110519F0F801D18AA7
:100F1000C08AC114D10419F0F601178706878C81A5
:100F20009D810E94C1321D830C83DF91CF911F915F
:100F30000F91FF90EF90DF90CF900895FC01848196
:100F40009581892B09F40895A481B5811E968D9110
:100F50009C911F97009719F095838483F5CF08958E
:100F60001F920F920FB60F9211242F933F934F931E
:100F70005F936F937F938F939F93AF93BF93EF9301
:100F8000FF93E091A902F091AA02309709F0099528
:100F9000FF91EF91BF91AF919F918F917F916F9151
:100FA0005F914F913F912F910F900FBE0F901F9027
:100FB0001895CF93DF93EB01BC0181E293E00E948F
:100FC000860ECE01DF91CF910C948A11CF92DF92E1
:100FD000EF92FF920F931F93CF93DF9300D000D037
:100FE00000D0CDB7DEB7609160027091610224E05D
:100FF000E22E22E0F22EF70120E030E0261737073C
:10100000A4F44081042E000C550B3996481759075B
:1010100049F449E0429FC001439F900D11248C5F29
:101020009D4F38C02F5F3F4FE9CF8C016CE373E0D9
:10103000CE0101960E941F0EB801CE0101960E94BA
:10104000D907CE0101960E941A0E00E010E08091AF
:1010500060029091610208171907D4F4F701C0806B
:101060000C2C000CDD0864E373E0CE0101960E94B5
:101070001F0EB601CE0101960E94D907CE0101963E
:101080000E941A0E0F5F1F4FF9E0EF0EF11CDFCF29
:1010900080E090E026960FB6F894DEBF0FBECDBF7D
:1010A000DF91CF911F910F91FF90EF90DF90CF9044
:1010B0000895EF92FF920F931F93CF93DF9300D089
:1010C00000D000D0CDB7DEB77C018B0197FD0CC0FE
:1010D0000E94E60701501109000F111F800F911F98
:1010E000FC018181928111C068E673E0CE01019616
:1010F0000E941F0EB701CE0101960E94D907CE01B2
:1011000001960E941A0E80E090E026960FB6F894A1
:10111000DEBF0FBECDBFDF91CF911F910F91FF902A
:10112000EF900895CF92DF92EF92FF920F931F936B
:10113000CF93DF9300D000D000D0CDB7DEB77C01D5
:101140008B016AE873E0CE0101960E941F0EB80180
:10115000CE0101960E94D907CE0101960E941A0E77
:10116000F701C080D18063E873E0CE0101960E9450
:101170001F0EB601CE0101960E94D907CE0101963D
:101180000E941A0EF701C280D3806CE773E0CE0193
:1011900001960E941F0EB601CE0101960E94D9074A
:1011A000CE0101960E941A0EF801EB54F109E730C6
:1011B000F10508F06EC0EC5CFF4F0C940B32F701A8
:1011C000828193810E94E607FC018781908590933C
:1011D0008A02809389020E941D1D0EC0F701828140
:1011E00093810E94E607FC018781908590938A0293
:1011F000809389020E94D71C0E94483135C0F701B4
:10120000828193810E94E607FC01878190859093FB
:101210008C0280938B020E947D04E0918B02F091FE
:101220008C022085918536C00E94D40260919D0277
:1012300070919E0280919F029091A00215C00E9421
:10124000D4026091A1027091A2028091A3029091B8
:10125000A4020AC00E94D4026091A5027091A60265
:101260008091A7029091A8020E94DE30262F972F2E
:1012700011C0F701828193810E94E60761E070E06E
:10128000F701828193810E9459080E94AA0F282F9A
:1012900001C001C0822F26960FB6F894DEBF0FBEA4
:1012A000CDBFDF91CF911F910F91FF90EF90DF9015
:1012B000CF900895CF92DF92EF92FF920F931F93FA
:1012C000CF93DF9300D000D000D0CDB7DEB77C0144
:1012D0008B016A0197FD0CC00E94E60701501109BD
:1012E000000F111F800F911FFC01D282C1820FC01D
:1012F00064E573E0CE0101960E941F0EB701CE0196
:1013000001960E94D907CE0101960E941A0E2696D8
:101310000FB6F894DEBF0FBECDBFDF91CF911F9106
:101320000F91FF90EF90DF90CF9008958F929F9252
:10133000AF92BF92CF92DF92EF92FF920F931F93E3
:10134000CF93DF93CDB7DEB727970FB6F894DEBF04
:101350000FBECDBF7C01FC01C080D18068EB73E083
:10136000CE0101960E941F0EB601CE0101960E9489
:10137000D907CE0101960E941A0EC7010E9445129C
:101380006C01C7010E9439125C01F7012081318193
:101390002239310509F47FC0E4F42E35310509F412
:1013A0004BC04CF42634310509F45CC128343105B6
:1013B00009F458C1F1C02838310509F442C02D386C
:1013C000310509F453C02F35310509F0E5C08C2DE6
:1013D00044C02D3A310509F4B6C0BCF4263A3105B3
:1013E00009F4A1C02B3A310509F0D6C0F70182817A
:1013F00093810E94E607FC018781908590938A0281
:10140000809389020E941D1DACC0223B310509F466
:10141000ABC0233B310509F4B2C0213B310509F0D3
:10142000BBC00E94D4026091A1027091A20280917F
:10143000A3029091A402ADC08C2D0E94150F8C01C7
:1014400014C1F701828193810E94E60761E070E098
:10145000F701828193810E9459080E94150F8C0127
:1014600024E0A22EB12CC12CD12C96C0F701828190
:1014700093810E94E607FC018781908590938C02FE
:1014800080938B020E947D04E0918B02F0918C028C
:101490000085118581C0F701828193810E94E60752
:1014A00061E070E0F701828193810E9459080E94F7
:1014B000150F8C0162E070E0F701828193810E9438
:1014C00059086C0164E070E0F701828193810E9409
:1014D00059085C010C151D0509F4C6C00E942010B6
:1014E0004501BB0CAA08BB08DC01CB01881999098E
:1014F000AA09BB0985369105A105B10508F4B4C058
:10150000A80162E070E0F701828193810E945A098C
:101510000E942010AB0164E070E0F70182819381AA
:101520000E945A09A2C0F701828193810E94E607B6
:1015300061E070E0F701828193810E9459080E9466
:10154000AA0F8C0129C0F701828193810E94E607CE
:10155000FC018781908590938A02809389020E9482
:10156000D71C0E94483115C00E94D40260919D0290
:1015700070919E0280919F029091A0020AC00E94E9
:10158000D4026091A5027091A6028091A702909169
:10159000A8020E94DE308B016EEA73E0CE01019654
:1015A0000E941F0EB801CE0101960E94D907CE01FC
:1015B00001960E941A0E67EA73E0CE0101960E941E
:1015C0001F0EB601CE0101960E94D907CE010196E9
:1015D0000E941A0E6BE973E0CE0101960E941F0E65
:1015E000B501CE0101960E94D907CE0101960E9455
:1015F0001A0EF7E0AF16B104F8F4F501E55CFF4F01
:1016000021E00C940B320C151D05B9F413C0C01663
:10161000D1069CF00FC00C151D057CF00BC00C15FD
:101620001D0541F40AC00C151D053CF403C0C0168D
:10163000D1061CF420E001C021E063E973E0CE0193
:1016400001962F830E941F0E2F81622F70E0CE0122
:1016500001960E94D907CE0101960E941A0E2F8191
:10166000822F0AC081E008C0860184E0A82EB12C38
:10167000CC24C394D12C90CF27960FB6F894DEBF1C
:101680000FBECDBFDF91CF911F910F91FF90EF90D3
:10169000DF90CF90BF90AF909F908F90089580E0A3
:1016A00090E0089581E293E00C94110C81E293E0C4
:1016B0000C94EF0B1F93CF93DF930E94520B892B57
:1016C00049F40E944F0B892BC1F38BE193E00E94F8
:1016D0005112F3CF0E94560BEC01182F0E94520BAF
:1016E000892B49F40E944F0B892BC1F382E093E0D0
:1016F0000E945112F3CF0E94560B282F1D3F19F460
:10170000CE01992715C099272D3F91F09E013327CF
:1017100040915E0250915F02422753274827592784
:1017200050935F0240935E02982F8827820F931F89
:10173000DF91CF911F91089580918D0290918E023B
:10174000009739F061E00E9460178BE39FE10197F9
:10175000F1F70895BC0180918D0290918E0200975F
:1017600011F00C94860E08950895CF92DF92EF92B7
:10177000FF920F931F93CF93DF936C017A018B013C
:10178000C0E0D0E0CE15DF0589F0D8016D918D0164
:10179000D601ED91FC910190F081E02DC6010995F3
:1017A000892B11F47E0102C02196ECCFC701DF9195
:1017B000CF911F910F91FF90EF90DF90CF90089500
:1017C000FC01538D448D252F30E0842F90E0821B47
:1017D000930B541710F0CF96089501970895FC01CC
:1017E000918D828D981761F0828DDF01A80FB11D58
:1017F0005D968C91928D9F5F9F73928F90E008957C
:101800008FEF9FEF0895FC01918D828D981731F035
:10181000828DE80FF11D858D90E008958FEF9FEF89
:101820000895FC01918D228D892F90E0805C9F4F5F
:10183000821B91098F739927089581E293E00E949A
:10184000110C21E0892B09F420E0822F0895FC017E
:10185000848DDF01A80FB11DA35ABF4F2C91848D39
:1018600090E001968F739927848FA689B7892C936E
:10187000A089B1898C9180648C93938D848D981309
:1018800006C00288F389E02D80818F7D80830895D2
:10189000EF92FF920F931F93CF93DF93EC0181E0C0
:1018A000888F9B8D8C8D981305C0E889F98980817C
:1018B00085FD24C0F62E0B8D10E00F5F1F4F0F73B8
:1018C0001127E02E8C8DE8120CC00FB607FCFACF62
:1018D000E889F989808185FFF5CFCE010E94270C28
:1018E000F1CF8B8DFE01E80FF11DE35AFF4FF0821F
:1018F0000B8FEA89FB898081806207C0EE89FF89AE
:101900006083E889F98980818064808381E090E048
:10191000DF91CF911F910F91FF90EF900895CF939A
:10192000DF93EC01888D8823C9F0EA89FB898081E7
:1019300085FD05C0A889B9898C9186FD0FC00FB6B9
:1019400007FCF5CF808185FFF2CFA889B9898C91FA
:1019500085FFEDCFCE010E94270CE7CFDF91CF911D
:10196000089580E090E0892B29F00E941D0C8111E0
:101970000C9400000895833081F028F4813099F0B0
:101980008230A1F008958730A9F08830B9F0843012
:10199000D1F4809180008F7D03C0809180008F778B
:1019A00080938000089584B58F7702C084B58F7DC1
:1019B00084BD08958091B0008F7703C08091B000FE
:1019C0008F7D8093B000089521E001C0220F6A95B9
:1019D000EAF7DC011C962C931C971A965C934E93A5
:1019E0001997ED91FC910484F585E02D60E0099450
:1019F000DC01ED91FC910684F785E02D41E009952D
:101A000081E090E008950E9423340F931F93CF93B9
:101A1000DF93EC0188819981009729F02A813B812D
:101A20002617370788F48B016F5F7F4F0E94593369
:101A3000009761F0998388831B830A832C813D8101
:101A4000232B11F4FC01108281E001C080E0DF91C2
:101A5000CF911F910F910895CF93DF93EC0188816F
:101A60009981009711F00E94C132198218821D825B
:101A70001C821B821A82DF91CF910895EF92FF9210
:101A80000F931F93CF93DF93EC017B018A01BA017F
:101A90000E94050D811104C0CE010E942C0D07C0CB
:101AA0001D830C83B701888199810E943134CE0156
:101AB000DF91CF911F910F91FF90EF900895EF92DA
:101AC000FF920F931F93CF938C01FC01759684E0D6
:101AD000C0E060FF02C09081C92B669581503196AD
:101AE0008111F7CF413011F4F8014489F80185855F
:101AF000C82BC42B7801FEE0EF0EF11CF8016289BF
:101B00006C2BC7010E94F017F801628960956C2365
:101B1000C701CF911F910F91FF90EF900C94F01798
:101B20000F931F93CF93DF93062F0F70423019F45A
:101B300040E0602F10C0142F262FEC0130E0B901D7
:101B400084E0759567958A95E1F7CE010E945F0D57
:101B5000412F602FCE01DF91CF911F910F910C94F7
:101B60005F0DFC0184858823A9F02185328521152C
:101B7000310519F4611106C007C02130310521F487
:101B8000611102C0858701C015866585CF010E965B
:101B90000C94F0170895FF920F931F93CF93DF9348
:101BA000EC01162F042FF22E8B85888B1092B50234
:101BB0001092B4021092FE02109220030E94A31B06
:101BC00061E088890E94D61291E0811101C090E005
:101BD000998B8EEB93E00E9455028E87898988232A
:101BE00039F01F861C8260E0CE010E960E94F0172D
:101BF0002F2D402F612FCE01DF91CF911F910F919B
:101C0000FF900C946817CF93DF93EC016115710579
:101C100059F0FB0101900020E9F73197AF01461B15
:101C2000570B0E943E0D02C00E942C0DCE01DF9189
:101C3000CF910895FC01808191810C94C132EF9283
:101C4000FF920F931F93CF93DF93EC0119821882B9
:101C50001B821A821D821C826115710509F18B019C
:101C6000CB010E94912D7C01BC01CE010E94050D8B
:101C7000811109C0CE01DF91CF911F910F91FF908B
:101C8000EF900C942C0DFD82EC82B8018881998133
:101C9000DF91CF911F910F91FF90EF900C948A2DBF
:101CA000DF91CF911F910F91FF90EF900895FB016D
:101CB000DC0111961C921E9213961C921E92129792
:101CC00015961C921E9214978617970749F060810B
:101CD00071816115710521F0448155810C943E0D8F
:101CE0000895FC01118210821382128215821482DF
:101CF0006115710551F0FB0101900020E9F7319762
:101D0000AF01461B570B0C943E0D0895DC01ED917D
:101D1000FC91DB0114964D915C9115976D917C912E
:101D20000280F381E02D09946115710579F0FB01C2
:101D300001900020E9F73197AF01461B570BDC01FA
:101D4000ED91FC910280F381E02D099480E090E018
:101D500008950F931F93CF93DF93EC010E94860E9B
:101D60008C016CE671E0CE010E94940E800F911FF1
:101D7000DF91CF911F910F9108951F920F920FB68F
:101D80000F9211242F933F934F935F936F937F9301
:101D90008F939F93AF93BF93EF93FF9381E293E071
:101DA0000E94270CFF91EF91BF91AF919F918F916E
:101DB0007F916F915F914F913F912F910F900FBE47
:101DC0000F901F9018951F920F920FB60F9211242B
:101DD0002F938F939F93EF93FF93E0913103F091B3
:101DE00032038081E0913703F091380382FD12C005
:101DF000908180913A038F5F8F7320913B0382170C
:101E000051F0E0913A03F0E0EF5DFC4F958F809345
:101E10003A0301C08081FF91EF919F918F912F91A3
:101E20000F900FBE0F901F901895CF93DF93282F20
:101E300030E0F901E15DFB4F8491F901E353FE4F7E
:101E4000D491F901E754FE4FC491CC2391F0811154
:101E50000E94BB0CEC2FF0E0EE0FFF1FEB55FE4F86
:101E6000A591B491EC91ED2381E090E021F480E024
:101E700002C080E090E0DF91CF9108951F93CF934F
:101E8000DF93282F30E0F901E15DFB4F8491F901E8
:101E9000E353FE4FD491F901E754FE4FC491CC2394
:101EA000C9F0162F81110E94BB0CEC2FF0E0EE0F51
:101EB000FF1FE155FE4FA591B4918FB7F894111112
:101EC00005C09C91ED2FE095E92302C0EC91ED2B2C
:101ED000EC938FBFDF91CF911F910895CF93DF9344
:101EE00090E0FC01E353FE4F2491FC01E754FE4FC8
:101EF0008491882361F190E0880F991FFC01E556D9
:101F0000FE4FC591D491FC01E155FE4FA591B491CE
:101F1000611109C09FB7F894888120958223888336
:101F2000EC912E230BC0623061F49FB7F894388196
:101F3000822F809583238883EC912E2B2C939FBF37
:101F400006C08FB7F894E8812E2B28838FBFDF91CE
:101F5000CF9108958E3008F08E5087708064809302
:101F60007C0080917A00806480937A0080917A006E
:101F700086FDFCCF809178002091790090E0922B33
:101F800008953FB7F8948091B0029091B102A0916A
:101F9000B202B091B30226B5A89B05C02F3F19F03D
:101FA0000196A11DB11D3FBFBA2FA92F982F8827D9
:101FB000820F911DA11DB11DBC01CD0142E0660F34
:101FC000771F881F991F4A95D1F708958F929F9286
:101FD000AF92BF92CF92DF92EF92FF926B017C01A2
:101FE0000E94C10F4B015C01C114D104E104F10452
:101FF000F1F00E94C10FDC01CB0188199909AA09EF
:10200000BB09883E9340A105B10570F321E0C21AD7
:10201000D108E108F10888EE880E83E0981EA11C23
:10202000B11CC114D104E104F10419F7DDCFFF9014
:10203000EF90DF90CF90BF90AF909F908F900895DA
:102040002FB7F8946091AC027091AD028091AE020E
:102050009091AF022FBF08951F920F920FB60F926B
:1020600011242F933F938F939F93AF93BF938091AE
:10207000AC029091AD02A091AE02B091AF0230914E
:10208000AB0223E0230F2D3720F40196A11DB11DD3
:1020900005C026E8230F0296A11DB11D2093AB02B7
:1020A0008093AC029093AD02A093AE02B093AF02C6
:1020B0008091B0029091B102A091B202B091B302AE
:1020C0000196A11DB11D8093B0029093B102A0931F
:1020D000B202B093B302BF91AF919F918F913F91A4
:1020E0002F910F900FBE0F901F901895EF92FF92B7
:1020F0000F931F93CF93DF938C017B01D42F81E04B
:102100008093FD0287E780931F031092FE021092D6
:102110002003FB0160818EEB93E00E94A50281E029
:102120000E947912F801E65BFF4F8083811124C081
:102130000D2F0D2E000C110B6D2F87E70E94D6126C
:102140008091B40290E02091B502821B9109801722
:102150009107E9F7C0E0CD176CF487010C0F111D52
:10216000C7FD1A958EEB93E00E945502F80180831B
:10217000CF5FF1CF81E001C080E0DF91CF911F916F
:102180000F91FF90EF9008950F931F93CF93DF93DC
:1021900000D0CDB7DEB78A01698342E0BE016F5F30
:1021A0007F4F0E947610882359F0898190E0982F04
:1021B00088272A81822BF8019183808381E003C0E4
:1021C000F801118210820F900F90DF91CF911F9133
:1021D0000F9108958F929F92AF92BF92CF92DF920C
:1021E000EF92FF920F931F93CF93DC011796CC9140
:1021F0001797662311F08C2F01C080E018962C9160
:10220000189730E0220F331F2B553E4F40E050E02F
:10221000BA01F90105911491F80190819C2398135A
:1022200015C06A017B019FEFC91AD90AE90AF90AA8
:102230001D968D909D90AD90BC9050974815590576
:102240006A057B0538F4B701A601E3CF342F252FAB
:10225000CB0104C030E020E080E090E0632F722FDB
:10226000CF911F910F91FF90EF90DF90CF90BF9093
:10227000AF909F908F900895E0912103F0912203F9
:102280000190F081E02D682F81E293E009948F9214
:102290009F92AF92BF920F931F93CF93DF93CDB7CF
:1022A000DEB7A1970FB6F894DEBF0FBECDBF19A25F
:1022B000423008F44AE08E010F5D1F4F842E912CAE
:1022C000A12CB12CA50194010E945C2FE62FB9012D
:1022D000CA0101501109EA3014F4E05D01C0E95C63
:1022E000D801EC93232B242B252B61F7B80181E235
:1022F00093E00E94940EA1960FB6F894DEBF0FBE35
:10230000CDBFDF91CF911F910F91BF90AF909F9064
:102310008F900895CF92DF92EF92FF92CF93DF9349
:102320006C01990FEE08FF08F7FE12C08DE20E94C3
:102330003C11EC0166277727CB016C197D098E09CA
:102340009F094AE00E9447117C01EC0EFD1E06C069
:102350004AE0C701B6010E9447117C016CE671E0BA
:1023600081E293E00E94940E8E0D9F1DDF91CF912C
:10237000FF90EF90DF90CF900895809106049091A8
:1023800007048431910578F49C0121503109309380
:10239000070420930604880F991FFC01E452FC4FA8
:1023A0002281338102C020E030E07091DC03609133
:1023B000DD038091060490910704DC01AA0FBB1F86
:1023C00040E050E021153105C9F0425051098431F7
:1023D000910548F090930704809306043093DD0341
:1023E0002093DC0308950197FA01EA0FFB1FE452E2
:1023F000FC4F722F632F24813581E4CF9093070423
:10240000809306047093DC036093DD030895CF93FB
:10241000DF93BC0181E293E00E94940EEC016CE634
:1024200071E081E293E00E94940E8C0F9D1FDF917A
:10243000CF9108958B3494F0E0913304F0913404FB
:102440003097A1F0682F880F770BA091DC03B09133
:10245000DD0314968D919C9115970994E82FEE0F4A
:10246000FF0BE85FFB4F80819181089580E090E051
:102470000895FC01892B41F082858F3F11F00C9467
:102480001A128481958108950895FC01892B41F0E9
:1024900083858F3F11F00C941A12868197810895DD
:1024A00008950F931F93CF93DF938C01C0E0D0E08A
:1024B000F801EC0FFD1F6491662371F0E091210398
:1024C000F09122030190F081E02D81E293E00995E3
:1024D000892B11F02196ECCF6CE671E081E293E05C
:1024E0000E94940E8C0F9D1FDF91CF911F910F9131
:1024F0000895382F2091200390911F03213208F076
:1025000049C08091FC028111FCCF42E04093FC0263
:102510003093FB023FEF3093FA021092F9022093BE
:10252000F802AFEFB2E048ED52E0FA013E2F341B63
:10253000321718F43D913193F9CF1092D7022091C0
:10254000D702990F922B9093D7029091D602913097
:1025500061F41092D6029091D7029093BB009091B3
:10256000BC0093FDF8CF95EC01C095EE9093BC00B4
:102570009091FC029230E1F39091FA029F3F79F042
:102580008091FA02803241F08091FA02803331F07A
:1025900084E005C081E003C082E001C083E01092C6
:1025A000FE02109220031092FD0208959091FC0209
:1025B0009111FCCF613208F060E291E09093FC024F
:1025C0009093FB022FEF2093FA021092F902260F4C
:1025D0002093F8029093D7029091D702880F892B0D
:1025E0008093D7028091D602813061F41092D60296
:1025F0008091D7028093BB008091BC0083FDF8CF0F
:1026000085EC01C085EE8093BC008091FC02813096
:10261000E1F38091F902861710F46091F902A8EDB8
:10262000B2E026EB32E0F9018E2F821B861718F4F8
:102630008D918193F9CF1092B5026093B402862FE9
:1026400008954F925F926F927F928F929F92AF9276
:10265000BF92CF92DF92EF92FF926B017C01B42E7A
:102660009B01AC010E94B631882319F060EA71E049
:1026700027C026013701E89477F82FEF3FEF4FE7A7
:102680005FE7C301B2010E94B63181110DC02FEF87
:102690003FEF4FE75FE7C301B2010E94CF2D18164D
:1026A0001CF464EA71E00CC02FEF3FEF4FE75FE4EA
:1026B000C701B6010E943B31181694F468EA71E034
:1026C00081E293E0FF90EF90DF90CF90BF90AF90CA
:1026D0009F908F907F906F905F904F900C94940E8E
:1026E0002FEF3FEF4FE75FECC701B6010E94CF2D00
:1026F00087FDE4CF20E030E0A901C701B6010E94C8
:10270000CF2D87FF09C08DE20E943C114C01F7FAE2
:10271000F094F7F8F09402C0812C912CA12C60E089
:1027200070E080E09FE3AB1441F020E030E040E255
:1027300051E40E946C30A394F6CF9B01AC01C70119
:10274000B6010E948E2F2B013C010E94E5306B01E7
:102750007C010E94D42D9B01AC01C301B2010E94F7
:102760008D2F2B013C014AE0C701B6010E944711A1
:102770007C01E80CF91CBB2029F08EE20E943C1180
:10278000E80EF91EDB2CDD2021F120E030E040E2F4
:1027900051E4C301B2010E94352E2B013C010E947D
:1027A000E5304B01A12CB12C4AE0C501B4010E94D7
:1027B0004711E80EF91EC501B4010E94D42D9B01FA
:1027C000AC01C301B2010E948D2F2B013C01DA94B0
:1027D000DACFC701FF90EF90DF90CF90BF90AF901E
:1027E0009F908F907F906F905F904F900895CF93C0
:1027F000DF930E942113EC016CE671E081E293E02B
:102800000E94940E8C0F9D1FDF91CF910895BC0103
:1028100081E293E00C94940E2F923F924F925F923C
:102820006F927F928F929F92AF92BF92CF92DF92E0
:10283000EF92FF920F931F93CF93DF93CDB7DEB745
:1028400068970FB6F894DEBF0FBECDBF1C01DC0148
:1028500013961C9213978D919C910E94E30647E07A
:10286000C42ED12CF101838181FD3CC0B1E0CB1A93
:10287000D108F10169F4ED57FF4F108211821282E5
:1028800013826FE070E080E090E00E94E60F2AC0C3
:10289000E080F18097012F5F3F4F08EE13E041E0A9
:1028A0006AE3D7018C910E940D06F7018181D10165
:1028B00013968C9313978D919C910E94C706F101FA
:1028C00090878783238124FD03C08115944050F2B3
:1028D000D1018D919C910E94E30683E494E00E94D3
:1028E0005112C0CFD10113968C9181FF7DC205E1B9
:1028F00010E0F101278130858581968128173907FD
:10290000C8F4F101808191810E94C706D101189617
:102910009C938E9317970150110929F48CEA91E04A
:102920000E94071207C065E070E080E090E00E941E
:10293000E60FDFCFD10115964C914101B9E08B0E26
:10294000911CD101ED91FC91442341F008EE13E07C
:10295000940164E780810E940D0602C0F101118696
:10296000D10117968D919C91189715962D913C91B8
:102970001697821B930B18969C938E931797ED9145
:10298000FC918114910411F480809180F401A48061
:10299000B12CBA2CAA248581A82AC084D12CDC2C85
:1029A000CC248185C82AE484F12CFE2CEE24858574
:1029B000E82A608170E0762F66278181682B072ED8
:1029C000000C880B990B0E94D62D20E030E040E8E7
:1029D00058E30E94352E2B013C018101075B1F4FFC
:1029E000D8016D937D938D939C931397B501BB0C88
:1029F000880B990B0E94D62D20E030E040E858E388
:102A00000E94352E4B015C01F80164837583868337
:102A10009783B601DD0C880B990B0E94D62D20E020
:102A200030E040E858E30E94352E69837A838B8337
:102A30009C83D80118966D937D938D939C931B97DF
:102A4000B701FF0C880B990B0E94D62D20E030E0D7
:102A500040E858E30E94352E6D837E838F839887EC
:102A6000F80164877587868797879B01AC01C5014C
:102A7000B4010E94352E6B017C0129813A814B8182
:102A80005C81C301B2010E94352E9B01AC01C701DC
:102A9000B6010E948D2F9B01AC010E948E2F698789
:102AA0007A878B879C870E5D1F4FD8016D937D932E
:102AB0008D939C931397A5019401C301B2010E94C9
:102AC000352E6B017C012D813E814F8158856981B6
:102AD0007A818B819C810E94352E9B01AC01C701BC
:102AE000B6010E948E2F9B01AC010E948E2F6D8734
:102AF0007E878F87988BF80164837583868397839D
:102B0000A3019201C301B2010E94352E6B017C0129
:102B1000A5019401C501B4010E94352E9B01AC01B1
:102B2000C701B6010E948D2F6B017C0129813A817A
:102B30004B815C81CA01B9010E94352E9B01AC0119
:102B4000C701B6010E948D2F6B017C012D813E8152
:102B50004F815885CA01B9010E94352E9B01AC01F5
:102B6000C701B6010E948E2F698B7A8B8B8B9C8B51
:102B7000D80118966D937D938D939C931B97A30119
:102B80009201C301B2010E948E2F6B017C01A5014D
:102B90009401C501B4010E948E2F6D8B7E8B8F8BAB
:102BA000988FA3019201C701B6010E94352E2B0117
:102BB0003C01A50194016D897E898F89988D0E94C1
:102BC000352E9B01AC01C301B2010E948E2F20E083
:102BD00030E040E85FE30E948D2F2B013C0129810A
:102BE0003A814B815C816D897E898F89988D0E94A5
:102BF000352E4B015C012D813E814F815885C701E7
:102C0000B6010E94352E9B01AC01C501B4010E94A2
:102C10008D2FA30192010E940D304B015C017101C7
:102C2000B3E8EB0EF11CF701608371838283938319
:102C300029893A894B895C89CA01B9010E94352EDC
:102C40002B013C012D853E854F855889CA01B9016C
:102C50000E94352EA30192010E948E2F0E94723194
:102C60009B01AC0169857A858B859C850E946C30BF
:102C70000E943D30045E1F4FD8016D937D938D936C
:102C80009C93139729853A854B855C85CA01B901C8
:102C90000E94352EA30192010E948E2F0E94723154
:102CA0009B01AC016D857E858F8598890E946C3073
:102CB0000E943D306101BBE8CB0ED11CF601608360
:102CC00071838283938320E030E044E353E4C501C1
:102CD000B4010E94CF2D882309F453C020E030E0D6
:102CE000A901C501B4010E94CF2D882309F449C070
:102CF0008CEB91E00E94071420E030E044E353E4C1
:102D0000D7016D917D918D919C910E94352E2BED77
:102D10003FE049E450E40E946C3042E00E942113FD
:102D20008FEB91E00E94071420E030E044E353E48D
:102D3000F80160817181828193810E94352E2BED93
:102D40003FE049E450E40E946C3042E00E942113CD
:102D50008FEB91E00E94071420E030E044E353E45D
:102D6000D6016D917D918D919C910E94352E2BED18
:102D70003FE049E450E40E946C3042E050E00E94A1
:102D8000F71320EE3EE245E652E4F70160817181DF
:102D9000828193810E94352ED7016D937D938D930F
:102DA0009C93139720EE3EE245E652E4F8016081E1
:102DB0007181828193810E94352ED8016D937D931C
:102DC0008D939C93139720EE3EE245E652E4F60184
:102DD00060817181828193810E94352ED6016D932D
:102DE0007D938D939C931397F101808191816896D7
:102DF0000FB6F894DEBF0FBECDBFDF91CF911F910C
:102E00000F91FF90EF90DF90CF90BF90AF909F9089
:102E10008F907F906F905F904F903F902F900C9489
:102E2000E30662E581E293E00C94480CCF92DF92D6
:102E3000EF92FF92CF93DF936C01990FEE08FF089A
:102E4000F7FE17C08DE20E943C11EC016627772740
:102E5000CB016C197D098E099F094AE00E94471138
:102E60008C0F9D1FDF91CF91FF90EF90DF90CF905F
:102E700008954AE0C701B601DF91CF91FF90EF902E
:102E8000DF90CF900C9447110895089585ED8093BD
:102E9000BC008091BC0084FDFCCF1092FC02089520
:102EA0000895E091B5028091B402E81730F4F0E0A3
:102EB000EA54FD4F808190E008958FEF9FEF0895D1
:102EC000DC01ED91FC910684F785E02D40E009944A
:102ED0000F931F93CF93DF93EC01423018F08C8156
:102EE00088608C834F836887222329F0413019F44E
:102EF0008C8184608C8364E670E080E090E00E94C6
:102F0000E60F6C8164FD31C0E881F9810684F785A4
:102F1000E02D42E063E0CE0109950BE416E4C80120
:102F20000197F1F7E881F9810684F785E02D42E009
:102F300063E0CE010995C8010197F1F7E881F981B5
:102F40000684F785E02D42E063E0CE01099583E534
:102F500092E00197F1F7E881F9810684F785E02D89
:102F600042E062E0CE01099516C06062CE010E9487
:102F700060178BE496E40197F1F76C816062CE01F3
:102F80000E94601783E592E00197F1F76C8160621F
:102F9000CE010E9460176C816062CE010E946017B2
:102FA00084E08D836CE0CE010E94601761E0CE0169
:102FB0000E9460178BE39FE10197F1F782E08E8317
:102FC00066E0CE010E946017E881F9810484F585EE
:102FD000E02D6FEFCE01DF91CF911F910F910994FA
:102FE000FC0123812223C1F09181909569236083A4
:102FF000828191E09093FD0280931F031092FE0264
:10300000109220038EEB93E00E94A50281E00E94C3
:103010007912282F30E002C020E030E081E090E01B
:10302000232B11F080E090E00895CF92DF92EF9291
:10303000FF92CF93DF93EC01603282E078070CF0CF
:103040003DC077FD06C0653B71052CF064EB70E078
:1030500002C060E070E0898128E830E06901C81AA8
:10306000D10887FDD394CC0CDD1CCC0CDD1C0D2CC1
:10307000000CEE08FF088A8128E532E0281B3109A0
:1030800087FD3395220F331F220F331FC901330FE2
:10309000AA0BBB0B9C01AD012C193D094E095F0920
:1030A000DB010E941D2F24EB30E040E050E00E9445
:1030B000F32EC20ED31EE41EF51EB60188818C309D
:1030C00080F5998148E850E0491B510997FD5395D7
:1030D000440F551F440F551F6417750784F09A81DC
:1030E00028E532E0291B310997FD3395220F331F64
:1030F000220F331FAB01261737070CF4A9014250EA
:103100005109440F551F2FB7F89490E0FC01EE0FC2
:10311000FF1F8E0F9F1FFC01ED59FD4F528341830E
:103120002FBFDF91CF91FF90EF90DF90CF90089568
:103130001F920F920FB60F9211242F933F934F932C
:103140005F936F937F938F939F93AF93BF93EF930F
:10315000FF9380917E0487FF05C010928500109236
:1031600084001BC020917E04022E000C330B809142
:10317000620290E02817390784F480917E04082EBB
:10318000000C990BFC01EE0FFF1F8E0F9F1FFC011F
:10319000ED59FD4F808186FD15C080917E048F5FC3
:1031A00080937E0420917E04022E000C330B8091CC
:1031B000620290E028173907C4F480917E048C30B5
:1031C00064F113C080917E04082E000C990BFC0161
:1031D000EE0FFF1F8E0F9F1FFC01ED59FD4F8081E9
:1031E00060E08F730E943E0FD8CF80918400909151
:1031F0008500049680349C4918F480E49CE905C05D
:10320000809184009091850004969093890080932A
:1032100088008FEF80937E043BC020918400309122
:10322000850080917E04082E000C990BFC01EE0FA6
:10323000FF1F8E0F9F1FFC01ED59FD4F8181928171
:10324000820F931F909389008093880080917E0461
:10325000082E000C990BFC01EE0FFF1F8E0F9F1F15
:10326000FC01ED59FD4F808186FF12C080917E04E4
:10327000082E000C990BFC01EE0FFF1F8E0F9F1FF5
:10328000FC01ED59FD4F808161E08F730E943E0F7C
:10329000FF91EF91BF91AF919F918F917F916F912E
:1032A0005F914F913F912F910F900FBE0F901F9004
:1032B00018951F920F920FB60F9211240F900FBE08
:1032C0000F901F9018958F929F92AF92BF92EF929E
:1032D000FF920F931F93CF93DF93EC018B018A81B1
:1032E000882319F0CE010E940C14FE01ED57FF4F08
:1032F00080809180A280B3807E018DEAE80EF11C6F
:10330000F70180829182A282B382B801110F880BEB
:10331000990B0E94D62D9B01AC01C501B4010E94FE
:103320008E2F4B015C0120E030E044E353E40E9427
:103330003B318E010F541F4F181634F0F801808274
:103340009182A282B3820DC020E030E044EB53E4CE
:10335000C501B4010E948D2FF801608371838283BF
:103360009383CB54DF4F81E0888381EC91E00E940E
:103370000714F70160817181828193814AE00E9484
:10338000211380EE91E00E940714F80160817181A1
:10339000828193814AE050E0DF91CF911F910F919C
:1033A000FF90EF90BF90AF909F908F900C94F71389
:1033B0008F929F92AF92BF92EF92FF920F931F93C3
:1033C000CF93DF93EC018B018A81882319F0CE0122
:1033D0000E940C14FE01ED57FF4F80809180A28067
:1033E000B3807E018DEAE80EF11CF70180829182A4
:1033F000A282B382B801110F880B990B0E94D62DBF
:103400009B01AC01C501B4010E948D2F4B015C01F1
:1034100020E030E044E353EC0E94CF2D8E010F54A6
:103420001F4F87FD06C0F80180829182A282B3827D
:103430000DC020E030E044EB53E4C501B4010E942C
:103440008E2FF8016083718382839383CB54DF4F87
:1034500081E0888385EE91E00E940714F701608186
:103460007181828193814AE00E94211380EE91E074
:103470000E940714F80160817181828193814AE082
:1034800050E0DF91CF911F910F91FF90EF90BF908F
:10349000AF909F908F900C94F7131F920F920FB6DE
:1034A0000F9211242F933F934F935F936F937F93CA
:1034B0008F939F93AF93BF93EF93FF938091B90046
:1034C000887F803609F49CC068F5883209F45BC0B7
:1034D00090F4803109F454C038F4882309F4F6C01C
:1034E000883009F44DC0F6C0883109F44CC08032F0
:1034F00009F45DC0EFC0803409F468C048F480333B
:1035000009F455C0883309F0E5C08093FA02D8C0A9
:10351000803509F44FC0883509F45DC0883409F05E
:10352000D9C0D6C0883909F4C7C0A8F4883709F4CF
:1035300067C038F4883609F463C0803709F460C086
:10354000C9C0883809F4B8C0803909F45FC0803830
:1035500009F0C0C05BC0803B09F486C038F4803AF3
:1035600009F466C0883A09F47FC0B4C0803C09F40D
:10357000A7C0883C09F4A4C0883B09F48AC0AAC04B
:103580008091D70210C09091F9028091F8029817AB
:1035900070F5E091F90281E08E0F8093F902F0E07E
:1035A000E852FD4F80818093BB0085EC86C08093FC
:1035B000FA028EC0E091F90281E08E0F8093F90249
:1035C0008091BB00F0E0E852FD4F80839091F902BA
:1035D0008091F8026EC0E091F90281E08E0F809335
:1035E000F9028091BB00F0E0E852FD4F80838091AA
:1035F000FB0281116DC081E08093D60284EA61C034
:1036000083E08093FC0210927B04CFCF80917B04F7
:10361000803208F051C0E0917B0481E08E0F8093EE
:103620007B048091BB00F0E0E55AFB4F8083BDCF67
:1036300085EC8093BC001092FC0280917B04803268
:1036400030F4E0917B04F0E0E55AFB4F108260918A
:103650007B0470E0E0915904F0915A048BE594E00A
:10366000099510927B0436C084E08093FC0210928E
:10367000580410925704E0915504F09156040995AE
:1036800080915704811105C081E080935704109206
:103690003504E091580481E08E0F80935804F0E0E7
:1036A000EB5CFB4F80818093BB009091580480912C
:1036B0005704981708F479CF85E88093BC000AC0B6
:1036C00085EC8093BC001092FC0204C01092FA02B8
:1036D0000E944617FF91EF91BF91AF919F918F91FB
:1036E0007F916F915F914F913F912F910F900FBEFE
:1036F0000F901F90189540915704262F30E0240F0B
:10370000311D21323105DCF42091FC022430C9F452
:10371000FC0180E090E0861758F430915704219125
:10372000DC01AB5CBB4FA30FB11D2C930196F3CF13
:1037300080915704680F6093570480E0089581E0FA
:10374000089582E008951092FC0281E08093FB02CC
:103750001092D60261E082E10E943E0F61E083E1B7
:103760000E943E0FE9EBF0E080818E7F80838081B4
:103770008D7F808388E48093B80085E48093BC00CB
:1037800008958F929F92AF92BF92CF92DF92EF9265
:10379000FF920F931F93CF93DF93CDB7DEB7C05443
:1037A000D1400FB6F894DEBF0FBECDBF8C010E9492
:1037B0002010F801C184D284E384F4849B01AC011D
:1037C0002C193D094E095F0969017A0130EDC316D4
:1037D00037E0D306E104F10410F48189B4C0F801A4
:1037E0006187728783879487148213821282118281
:1037F000108261E085810E943E0F6AEF70E080E0F8
:1038000090E00E94E60F61E0F80185810E946E0F52
:1038100060E0F80185810E943E0F64E170E080E085
:1038200090E00E94E60FF89461E0F80185810E9423
:103830003E0F8BE990E00197F1F762E0F801858196
:103840000E946E0F83E290E00197F1F760E0C801FB
:103850000E94EA10672B682B692B21F4F801118A6A
:10386000789442C061E0C8010E94EA10672B682B7F
:10387000692BA1F39E012F5F3F4F79015E013FEB62
:10388000A31A3EEFB30A670160E0C8010E94EA1084
:10389000F601608371838283938361E0C8010E9493
:1038A000EA10F6016483758386839783F8E0CF0E70
:1038B000D11CCA14DB0441F7789420E030E0F70112
:1038C000408151816281738184809580A680B78018
:1038D000411551056105710529F081149104A10478
:1038E000B10421F4F801118A80E02DC0F90183E0D0
:1038F000F595E7958A95E1F7E00FF11F8081880F34
:10390000481559056A057B0508F4816080832F5F9F
:103910003F4FF8E0EF0EF11C2832310581F6F80137
:10392000248130E04081818190E0840F911D4281AB
:10393000840F911D4381840F911D99272817390702
:1039400089F681E0818BC05CDE4F0FB6F894DEBF54
:103950000FBECDBFDF91CF911F910F91FF90EF90E0
:10396000DF90CF90BF90AF909F908F900895CF93AE
:10397000DF93EC0181E08093FD0287E780931F03D2
:103980001092FE021092200342E050E08EEB93E092
:103990000E94750281E00E947912982FC65BDF4F6A
:1039A000888381E0911180E0DF91CF910895CF92DB
:1039B000DF92EF92FF92CF93DF93EC010E94C11B45
:1039C000882381F18E818B3031F160F18551823015
:1039D00048F5688170E080E090E00E94D42D20E0FE
:1039E00030E040E853E40E94352E6B017C01898170
:1039F000682F70E080E090E00E94D62D9B01AC0122
:103A0000C701B6010E948E2F2DEC3CEC4CEC5DE31F
:103A10000E94352E0BC0688170E080E090E00E942B
:103A2000D42D04C060E070E080EC9FE7DF91CF917F
:103A3000FF90EF90DF90CF900895CF92DF92EF92BA
:103A4000FF921F93CF93DF93EC010E94C11B882349
:103A5000B1F18E818B3029F090F18551823040F0A8
:103A60002EC06A8170E080E090E00E94D42D2BC0CF
:103A70001A81612F6F7770E080E090E00E94D62D70
:103A800020E030E040E853E40E94352E6B017C01D9
:103A90008B81682F70E080E090E00E94D62D9B0122
:103AA000AC01C701B6010E948E2F2DEC3CEC4CEC12
:103AB0005DE30E94352E17FF06C0905804C060E0F9
:103AC00070E080EC9FE7DF91CF911F91FF90EF9026
:103AD000DF90CF900895CF93DF93CDB7DEB7A29755
:103AE0000FB6F894DEBF0FBECDBF789484B5826068
:103AF00084BD84B5816084BD85B5826085BD85B592
:103B0000816085BD80916E00816080936E0010920F
:103B1000810080918100826080938100809181008A
:103B2000816080938100809180008160809380001B
:103B30008091B10084608093B1008091B000816079
:103B40008093B00080917A00846080937A008091A5
:103B50007A00826080937A0080917A0081608093FD
:103B60007A0080917A00806880937A001092C10078
:103B7000E0913103F091320382E08083E0912D03E4
:103B8000F0912E031082E0912F03F09130038FEC1F
:103B9000808310923903E0913503F091360386E07B
:103BA0008083E0913303F0913403808180618083CE
:103BB000E0913303F0913403808188608083E09149
:103BC0003303F0913403808180688083E091330374
:103BD000F091340380818F7D808388ED90E00E9496
:103BE000511286E999E0909332048093310482E97E
:103BF00098E090933404809333040E949C0B6BEC08
:103C000070E0CE0101960E941F0ECE0101960E9427
:103C1000AA0BCE0101960E941A0E8CEB90E00E9436
:103C2000511264EF71E080E090E00E94E60F82EBB9
:103C300090E00E9451122091970230919802809159
:103C40009502909196022817390799F10E949C0BD2
:103C500080919502909196020097B9F0019749F5ED
:103C600069EE72E0CE0101960E941F0ECE01019610
:103C70000E94AA0BCE0101960E941A0E67E571E020
:103C80008AEC93E00E94030E14C060ED77E080E0C0
:103C900090E00E94E60F65EF72E0CE0101960E946F
:103CA0001F0ECE0101960E94AA0BCE0101960E9422
:103CB0001A0E8091950290919602909398028093AB
:103CC00097028EE7809308010E94560B80930801AB
:103CD0008F3F31F481E293E00E94EF0B8093080163
:103CE000809108018E3709F4ACC08F3F09F4A9C058
:103CF000082E000C990B0E948A1160910801062E73
:103D0000000C770B645A7E4FCE0101960E94710E13
:103D1000CE0101960E94AA0BCE0101960E941A0EB6
:103D2000809108018736D1F1ACF4803301F1813301
:103D300009F087C081E08093070121E030E03093F3
:103D400096022093950264EF71E080E090E00E947B
:103D5000E60F77C0893609F46EC0853709F071C067
:103D60006AE570E080E090E00E94D8196AC06EEDCC
:103D700072E0CE0101960E941F0E60E070E0CE015D
:103D800001960E94D907CE0101960E941A0E109248
:103D90000701109296021092950253C01092AA0049
:103DA0001092A9008091A9009091AA009C012F5F18
:103DB0003F4F3093AA002093A90006978CF0809182
:103DC000830090918400A0918500B091860080933B
:103DD000AD009093AE00A093AF00B093B00031C09F
:103DE00065E070E080E090E00E94E60F80910200C4
:103DF000882321F080E090E00E940C14C0908300A2
:103E0000D0908400E0908500F090860020E030E0C3
:103E100044E353E4C701B6010E94CF2D882311F279
:103E200020E030E0A901C701B6010E94CF2D882310
:103E300009F4B8CFC4CF6AE570E080E090E00E945A
:103E400063198091950290919602019711F00C945C
:103E50000D2A67E571E08AEC93E00E94030E609002
:103E60000701662009F452C080E090E0A0E8BFEBB3
:103E70008093030190930401A0930501B093060180
:103E80008FEF9FEF909302018093010181E0809377
:103E9000000160EC71E0CE0143960E94710E109219
:103EA00061021092600260E771E0CE0101960E940B
:103EB0001F0E60E070E0CE0101960E94D907CE018E
:103EC00001960E941A0E0E9420106B01770FEE08D7
:103ED000FF080E94111762E370E080E090E00E940A
:103EE000E60F0E94520B892B11F00C94112A0E94AC
:103EF0002010DC01CB018C199D09AE09BF0988385F
:103F00009341A105B10528F30C94112A60EC71E0EE
:103F1000CE0149960E94710E80913004882311F4DD
:103F20000C94F12980910001882309F4A3C08091A9
:103F30003004882309F490C00091DC031091DD0364
:103F4000C8010E942807882309F46CC0E09131045D
:103F5000F0913204D80114968D919C911597099592
:103F60004091DC035091DD03882349F1FA0124815B
:103F70003581F901A289B38914968D919C91159789
:103F8000892B09F44FC08091060490910704019693
:103F90009093070480930604880F991FFC01E45254
:103FA000FC4F53834283DA0111963C932E93139670
:103FB0001C921E921297F901828993892DC0DA0111
:103FC0001496ED91FC91159784899589009709F4D1
:103FD00045C0DC0114968D919C911597892BF1F1C8
:103FE00080910604909107040196909307048093B2
:103FF0000604880F991F84529C4FDC0113965C9332
:104000004E931297DA011196FC93EE9313961C923D
:104010001E921297848995899093DD038093DC0327
:104020000E949E070091DC031091DD03C8010E94ED
:104030002807882311F40C94BC2BD8011496ED9119
:10404000FC9115970288F389E02D84819581892B55
:1040500009F06DCF0C94BC2BE0E0F0E0F0939402FB
:10406000E0939302309709F491C12080318010923F
:10407000000104C0209001013090020137FE02C00F
:104080000C946529B7E82B16310409F438C40CF0F8
:1040900004C1F8E72F16310409F4F2C20CF077C01E
:1040A0003EE12316310409F463C28CF455E0251671
:1040B000310409F493C18AE02816310409F495C14A
:1040C00092E02916310411F00C9465295FC1AEE627
:1040D0002A16310409F458C29CF4E8E22E16310481
:1040E00011F00C94652980919302909194020E94A2
:1040F0003912BC0180E090E00E94D8190C94652927
:10410000FFE62F16310409F46CC220E722163104B1
:1041100011F00C946529E0919302F0919402828150
:1041200093810E94E607FC0187819085909392021B
:104130008093910280919302909194020E9439128F
:104140008C0180919302909194020E944512C0903C
:104150009102D090920228EE33E0DC010E941132ED
:104160006F8F78A389A39AA37801EE0CFF1CEE0C45
:10417000FF1CF5E0EF1AF1082801440C551C052C32
:10418000000C66087708812C912C54016FC23CE723
:104190002316310409F43FC394F45AE72516310479
:1041A00009F4D0C20CF0D1C2E0919302F0919402D4
:1041B00060857185CE0149960E94030E74C392E812
:1041C0002916310409F486C30CF051C0BDE72B1643
:1041D000310411F00C946529E0919302F09194025E
:1041E00060857185CE0149960E94030EBE01675E0F
:1041F0007F4FCE0101960E94570ECE0101960E947C
:10420000AA0BCE0101960E941A0E80919302909102
:1042100094020E9439121C8A1B8A1E8A1D8A188EDB
:104220001F8A4AE0BE016F5F7F4F0E949A2DBE0138
:104230006F5F7F4FCE0143960E94030ECE014396DF
:104240000E94AA0BCE0143960E941A0EBE01675E21
:104250007F4F81E293E00E94860E809193029091BD
:1042600094020E9439120E948A110C946529E3E895
:104270002E16310409F434C3F4E82F16310411F07A
:104280000C946529E0919302F091940261E070E052
:10429000828193810E9459082EC32AEA2216310492
:1042A00009F452C5CCF547E92416310409F4B8C421
:1042B0008CF481E92816310409F4DEC396E9291645
:1042C000310409F401C4ACE82A16310411F00C944D
:1042D00065292CC3B9E92B16310409F4D8C40CF4B0
:1042E000B9C4FAE92F16310409F4FAC425EA2216F2
:1042F000310411F00C9465290091930210919402FD
:1043000060E0D80114968C910E946E0FF8014481F0
:10431000558161E070E081C43AEC2316310409F460
:104320001DC76CF458EC2516310409F405C70CF0D0
:104330000BC790EB2916310409F478C5C6C7A6EE61
:104340002A16310409F412C764F4EBEC2E1631047A
:1043500009F0BBC780919302909194020E94391298
:10436000CAC2F7EE2F16310409F44FC72AEF2216FE
:10437000310409F0AAC780919302909194020E949F
:104380003912BC01990F880B990B9DC70E94BD1172
:104390001092300468EC72E0CE0101960E941F0E6C
:1043A00060E070E0CE0101960E94D907CE0101962F
:1043B0000E941A0E63EB72E0CE0101960E941F0E5E
:1043C00060E070E0CE0101960E94D907CE0101960F
:1043D0000E941A0E42E0242E312C77C7809193025E
:1043E000909194020E94391270C78090AD00909015
:1043F000AE00A090AF00B090B000C501B4010E9423
:10440000DE302B013C017B016AEA72E0CE010196AD
:104410000E941F0EB201CE0101960E94D907CE0163
:1044200001960E941A0E80910101909102010A9753
:10443000B9F08092030190920401A0920501B0921C
:10444000060169E972E0CE0101960E941F0EB201D9
:10445000CE0101960E94D907CE0101960E941A0E44
:104460004090030150900401609005017090060196
:1044700020E030E0A901C301B2010E94CF2D87FFE7
:1044800009C020E030E044EB53E4C301B2010E94D4
:104490008E2F02C0C301B2010E94DE308B0120E0EA
:1044A00030E0A901C501B4010E94CF2D87FF0BC0E8
:1044B00020E030E044EB53E4C501B4010E948E2FAC
:1044C0000E94DE307B010E191F09C8018D549F4FD9
:1044D0008736914090F008561140C80168E671E0B7
:1044E0000E94F73180E39DEF689F9001699F300D36
:1044F000789F300D1124020F131F6FE872E0CE0178
:1045000001960E941F0EB801CE0101960E94D907A4
:10451000CE0101960E941A0EC0900301D0900401B2
:10452000E0900501F0900601C092B100D092B20077
:10453000E092B300F092B40081E08093B50065E8AA
:1045400072E0CE0101960E941F0EC701B6010E94C3
:10455000DE30CE0101960E94D907CE0101960E945D
:104560001A0E8AE090E0909302018093010139C70E
:1045700080919302909194020E943912BC0180E0D4
:1045800090E00E946319A1C6E0919302F091940219
:104590004481558161E070E0828193810E945A09D3
:1045A000E0919302F0919402828193810E94E60748
:1045B0008C0186E090E00E942C327C01E091930215
:1045C000F0919402D48061E08D2D0E946E0FD7018E
:1045D000DC92F0929202E0929102F801F086E7827A
:1045E00074C6E0919302F0919402828193810E94BB
:1045F000E607DC0117960D911C9118971093920213
:10460000009391023BE4E32EF12C61E0F8018081FC
:104610000E943E0F83E992E00197F1F760E0D80134
:104620008C910E943E0F83E992E00197F1F7B1E08F
:10463000EB1AF10851F749C661E0D6018C910E944E
:104640003E0F0230110518F0C7010197F1F760E045
:10465000F60180810E943E0F0230110518F0C7015B
:104660000197F1F7840C951CA61CB71C2F8D38A15F
:1046700049A15AA182169306A406B506ECF225C6F6
:1046800080918D0290918E02892B09F01EC689E1DE
:1046900090E00E942C32FC011382128283E191E0AF
:1046A00091838083108A8FEF87871686118A87E22D
:1046B0008387148615861286118684E0828B82E0B9
:1046C000838B81E0848B80E1858B80E2868B80E424
:1046D000878B80E8808FF0938E02E0938D0220E03C
:1046E00042E060E1CF010E94CB0D80918D0290915C
:1046F0008E02DC01ED91FC910284F385E02D40E017
:1047000050E063E0099580918D0290918E02DC016A
:10471000ED91FC910484F585E02D61E0099560E957
:1047200071E0CE0101960E941F0ECE0101960E94FB
:10473000AA0BCE0101960E941A0E60ED77E080E090
:1047400090E0C1C50E949C0BC0C580918D029091E4
:104750008E02892B09F4B9C580919302909194023D
:104760000E943912082FE92E8091930290919402B1
:104770000E944512182FF92E69E772E0CE010196CA
:104780000E941F0E602F7E2DCE0101960E94D90738
:10479000CE0101960E941A0E6DE672E0CE010196DE
:1047A0000E941F0E612F7F2DCE0101960E94D90716
:1047B000CE0101960E941A0E80918D0290918E0278
:1047C0001B8A20E42C8B34E13D8B34E53E8B19822F
:1047D0002A8320E12B8320E52C83FC0147811417D9
:1047E00010F01FEF140FDC0118965C91212F30E0C0
:1047F000503129F4443019F4E1E0F0E002C0E3E183
:10480000F0E0EC0FFD1FE20FF31F6081600F6068A6
:104810000E9460175AC580919302909194020E9461
:1048200039121C8A1B8A1E8A1D8A188E1F8A4AE02A
:10483000BE016F5F7F4F0E949A2DBE016F5F7F4F59
:10484000CE0143960E94030E898D9A8D0097A9F0A0
:104850006B897C896115710571F04B8D5C8D2F8999
:10486000388D4217530738F00E9431348F89988D64
:104870009E8F8D8F12C00E94C1328B899C899A8F26
:10488000898F8D899E899C8F8B8F8F89988D9E8F24
:104890008D8F1C8A1B8A1E8A1D8A188E1F8ACE0144
:1048A00043960E941A0EBE01675E7F4FCE010196AD
:1048B0000E94570ECE0101960E94AA0BCE010196CE
:1048C0000E941A0EBE01675E7F4F81E293E00E9454
:1048D000A90EFBC4009193021091940261E014C0F0
:1048E000E0919302F091940261E070E08281938103
:1048F0000E94590839C460E00E943E0FE6C400914E
:1049000093021091940260E0F80184810E946E0F7E
:10491000D80114964D915C91159761E070E0129664
:104920008D919C9113970E945A09CFC4E0919302F4
:10493000F09194024481558161E070E0828193811D
:104940000E945A09E0919302F091940246815781A6
:1049500062E070E0828193810E945A09E0919302A3
:10496000F0919402828193810E94E6077C0180E1AC
:1049700090E00E942C328C01FC011486158616866C
:10498000178690938C0280938B02D70118969C9384
:104990008E931797E0919302F091940226813781CC
:1049A0008481958145E050E0F8015783468340E9D2
:1049B00051E0538742879383828335832483009712
:1049C00009F483C461E00E946E0F60E0D801149680
:1049D0008C910E946E0F82E190E00E942C32DC01EB
:1049E000F80144815581228133813327F901E35352
:1049F000FE4FE4911496EC9314975527FA01E35374
:104A0000FE4FE4911596EC93159727543E4FF9010C
:104A10008491E82FF0E0EE0FFF1FE155FE4F8591E6
:104A2000949117969C938E931697FA01E754FE4F34
:104A3000E491F0E0EE0FFF1FEB55FE4F859194914E
:104A40001B969C938E931A97F9012491E22FF0E024
:104A5000EE0FFF1FE556FE4F8591949119969C939A
:104A60008E9318978CE299E51D969C938E931C97D4
:104A7000F801B183A08329C400919302109194029C
:104A800060E0D80114968C910E946E0FF801448169
:104A9000558161E070E0828193810E945A09E09122
:104AA0009302F091940240E050E062E070E0828175
:104AB00093810E945A09E0919302F091940240E0A0
:104AC00050E064E070E0A9C0E0919302F09194029C
:104AD000828193810E94E6077C0183E090E00E943E
:104AE0002C328C01809162028C30A0F491E0980FFE
:104AF00090936202D8018C9390E0FC01EE0FFF1FAF
:104B00008E0F9F1FFC01ED59FD4F88EB9BE09283B8
:104B1000818303C08FEFF80180831093900200938C
:104B20008F02E0919302F0919402D480D8018C918D
:104B30008C3008F057C061E08D2D0E946E0FF80197
:104B40008081282F30E0A901440F551F240F351F05
:104B5000F901ED59FD4F9D2D9F732081207CD22EB0
:104B6000D92AD082D80111961C92119712961C92C4
:104B70006CE00E94EB31BCE08B9FB001112440E05F
:104B800050E09A01260F371FF901EE0FFF1F2E0F7D
:104B90003F1FF901ED59FD4F908196FD16C04F5F03
:104BA0005F4F4C30510569F781110FC010928000A2
:104BB00082E0809381001092850010928400B19A67
:104BC00080916F00826080936F00D801EC91F0E0DB
:104BD000CF01880F991FE80FF91FED59FD4F808114
:104BE0008064808380918F0290919002F70190877A
:104BF0008783E0919302F09194024481558161E0B2
:104C000070E0828193810E945A09E0919302F091B1
:104C100094024AE550E062E070E08281938183CEA5
:104C2000E0919302F0919402828193810E94E607C1
:104C3000DC0117968D919C91189790939002809328
:104C40008F0280919302909194020E9439120AE59A
:104C500010E03FC0E0919302F09194028281938131
:104C60000E94E607FC0187819085909390028093D3
:104C70008F0280919302909194020E9439128A359A
:104C800091050CF052C08C01065A1F4F50C0E091A4
:104C90009302F0919402828193810E94E607DC01E5
:104CA00017968D919C9118979093900280938F0204
:104CB000E0919302F091940262E070E0828193812E
:104CC0000E9459088C0180919302909194020E9455
:104CD0003912081B190B17FF2AC000E010E027C08B
:104CE000E0919302F0919402828193810E94E60701
:104CF000FC01878190859093900280938F02E091D0
:104D00009302F091940262E070E0828193810E94AC
:104D100059088C0180919302909194020E9439125B
:104D2000080F191F053B110514F004EB10E0B80142
:104D300080918F02909190020E941518E091930249
:104D4000F0919402A80167CFE0919302F091940250
:104D5000828193810E94E6078C0182E190E00E94AB
:104D60002C32DC018091930290919402FC014681E7
:104D70002481358115962C93159716964C9316978A
:104D80003327F901E353FE4FE4911796EC931797FD
:104D9000F901E754FE4FE4911896EC93189720E838
:104DA0003EE340E050E01D962D933D934D935C9380
:104DB0005097B0938A02A0938902F801B087A78325
:104DC000DC0114964D915C91159761E070E01296AC
:104DD0008D919C9113970E945A09E0919302F09152
:104DE00094024681578162E070E0828193810E9443
:104DF0005A090091890210918A0262E0F8018581C6
:104E00000E946E0F20E338EF4FEF5FEFD801199645
:104E10002D933D934D935C931C9760E672E0CE0119
:104E200001960E941F0E60E070E044C2E091930280
:104E3000F0919402828193810E94E6077C018BE4C9
:104E400090E00E942C328C0190938802809387021C
:104E5000F701908787831092B5021092B4021092E6
:104E6000FE02109220030E94A31BA8016AEAC80157
:104E70000E94C410882309F486C4A8014E5F5F4FC6
:104E80006CEAC8010E94C410882309F47CC4A801FC
:104E90004C5F5F4F6EEAC8010E94C410882309F47A
:104EA00072C4A801405F5F4F60EBC8010E94012DF2
:104EB000882309F468C4A8014E5E5F4F62EBC80105
:104EC0000E94012D882309F45EC4A8014C5E5F4F47
:104ED00064EBC8010E94012D882309F454C4A80181
:104EE0004A5F5F4F66EBC8010E94C410882309F433
:104EF0004AC4A801485F5F4F68EBC8010E94C41014
:104F0000882309F440C4A801465F5F4F6AEBC801DB
:104F10000E94C410882309F436C4A801445F5F4F7F
:104F20006CEBC8010E94C410882309F42CC4A801AA
:104F3000425F5F4F6EEBC8010E94C410882309F4E2
:104F400022C4F80164817581072E000C880B990B2F
:104F50000E94D62D20E030E040EA5BE30E94352E2F
:104F60002B013C01D80150966D917C91519780E0C6
:104F700090E00E94D42D2FE632E143E053E30E94FB
:104F8000352E6B017C01F80166817781072E000CBC
:104F9000880B990B0E94D62D20E030E048EC57E3B7
:104FA0000E94352E4B015C01D80152966D917C9187
:104FB000539780E090E00E94D42D2DEC3CEC4CE423
:104FC00054E30E94352EF801668B778B808F918F8A
:104FD0006489758980E090E00E94D42DD8015A96AA
:104FE0006D937D938D939C935D971C966D917C91B1
:104FF0001D97072E000C880B990B0E94D62D2AE0D6
:1050000037ED43EA5DE30E94352EF801668F778F16
:1050100080A391A366857785072E000C880B990BDA
:105020000E94D62D20E030E040E253E40E946C3034
:10503000D80192966D937D938D939C9395976D91E6
:105040007C91072E000C880B990B0E94D62DF8013D
:1050500066A377A380A791A762817381072E000CB6
:10506000880B990B0E94D62D20E030E040EA5CE3EB
:105070000E94352ED8019A966D937D938D939C93C3
:105080009D9718966D917C911997072E000C880BAF
:10509000990B0E94D62D20E030E048E45AE30E94AC
:1050A000352EF80166A777A780AB91AB20E030E002
:1050B00040E057E4C701B6010E94352ED801D296D0
:1050C0006D937D938D939C93D597A3019201C70116
:1050D000B6010E94352EF80166AB77AB80AF91AF79
:1050E000A5019401C701B6010E94352ED801DA96B8
:1050F0006D937D938D939C93DD97F801FE962CEE36
:1051000031E547E150E42083318342835383349671
:1051100080E394E3AEE7BFE380839183A283B3830C
:10512000349620E037E544E956E320833183428317
:1051300053838CE492E029C380919302909194026E
:105140000E94391261E007C080919302909194020D
:105150000E94391260E00E946E0FB7C080919302E6
:10516000909194020E94391261E0C6CB8091930223
:10517000909194020E9439128C0180919302909137
:1051800094020E944512D82EF92E6AE272E0CE01F6
:1051900001960E941F0E6D2D7F2DCE0101960E945B
:1051A000D907CE0101960E941A0E63E272E0CE0189
:1051B00001960E941F0EB801CE0101960E94D907E8
:1051C000CE0101960E941A0E8D2D0E941A127C01AA
:1051D00068E172E0CE0101960E941F0EB701CE0178
:1051E00001960E94D907CE0101960E941A0EED2D5C
:1051F000EE0FFF0BE85FFB4F118300838D2D0E94A4
:105200001A128C016DE072E050C08091930290916F
:1052100094020E9439128C01809193029091940221
:105220000E944512D82EF92E6EEF71E0CE01019644
:105230000E941F0E6D2D7F2DCE0101960E94D90771
:10524000CE0101960E941A0E67EF71E0CE01019621
:105250000E941F0EB801CE0101960E94D907CE010F
:1052600001960E941A0E8D2D0E941A127C016CEE7E
:1052700071E0CE0101960E941F0EB701CE0101968A
:105280000E94D907CE0101960E941A0EED2DEE0F55
:10529000FF0BE85FFB4F0E0D1F1D118300838D2D4B
:1052A0000E941A128C0161EE71E0CE0101960E94FB
:1052B0001F0EB801CE0101960E94D907CE010196BA
:1052C0000E941A0E02C00E94E60F809130048823CB
:1052D00009F470C0E091DC03F091DD03A481B58195
:1052E00050968D919C915197009721F0AB2B09F02E
:1052F00058C060C020910604309107042431310564
:1053000008F052C0C90101979093070480930604E6
:10531000C901880F991FFC01E452FC4F0280F38100
:10532000E02D309709F440C0F093DD03E093DC03F7
:1053300042815381BA016F5F7F4F73836283A08183
:10534000B1811C960D911C911D97E480F58060172A
:105350007107E9F0D7016D917C916834710511F402
:1053600053834283309307042093060484529C4F56
:10537000DC011396FC93EE931297F70182899389CF
:105380009093DD038093DC030E949E0713C0E11419
:10539000F10481F0D70150968D919C91519700971F
:1053A00049F09583848306C0109230048FE691E023
:1053B0000E940712BAE02B16310461F0E4E12E16C8
:1053C000310441F0FEE12F16310421F028E22216CB
:1053D000310421F4309202012092010181E0809396
:1053E0000001CE0149960E941A0E8091300481116D
:1053F00014C010929602109295026FE771E0CE01F0
:1054000001960E94710E60E070E0CE0101960E944C
:10541000D907CE0101960E941A0E0E94B10C0C947D
:105420001B1E0E94560B8C0165E971E0CE010196AE
:105430000E94710EB801CE0101960E94D907CE01DB
:1054400001960E941A0E101611064CF08CE591E0A0
:105450000E945112109296021092950253C18FE44D
:1054600091E00E94511260E971E080E090E00E94BA
:10547000E60F0091DC031091DD03D80114968D91A5
:105480009C911597892B91F41092300410925F0231
:1054900010925E02912C712C812CC12CD12C212CCC
:1054A000312C2FEF3FEF38A32F8FB3C0C8010E94DC
:1054B0004B07D80114968D919C911597892B21F358
:1054C000C8010E945D07F5CF81E691E00E940714B4
:1054D000C8010E9416178AE691E00E940714492C21
:1054E000092C000C5508C2010E9416178AE691E0AB
:1054F0000E940714C1010E9416178AE691E00E94DB
:105500000714882D082C000C990B0E9416178AE6A8
:1055100091E00E940714872D072C000C990B0E9424
:1055200016178AE691E00E940714C6010E948A11AC
:105530000D3F110509F484C00F3FBFEF1B0709F4AD
:1055400016C18091DC039091DD030115110509F06E
:105550001FC1DC011496ED91FC91159720813181DA
:105560002336310529F0B8010E9417078823D1F0AE
:1055700080910604909107048431910508F00AC1D6
:105580009C01215031093093070420930604880FB1
:10559000991FFC01E452FC4F828193819093DD03BB
:1055A0008093DC03E090DC03F090DD03B801C701D9
:1055B0000E941707882309F4F0C0E090DC03F09004
:1055C000DD03C7010E94280781112CC1B801C70162
:1055D0000E941707811126C1E091DC03F091DD03E1
:1055E000A480B580D5011A968C921A971B967C924E
:1055F0000115110509F00DC10480F581E02D8081B0
:1056000091818937910509F45BC18D37910509F4C2
:1056100057C10E945A0B8C018D3F910509F454CF5C
:105620000E945A0B982E0E945A0B1C010E945A0B82
:10563000882E0E945A0B782E0E945A0B6C0144CF80
:105640000E9411170E94560B8C018D3F9105D1F3DA
:105650000196C1F380915E0290915F028D3F9105AA
:1056600031F48EEF90E090935F0280935E02809120
:105670005E0290915F020817190711F58FE391E020
:105680000E945112BE016D5E7F4F81E293E00E9445
:10569000A90E6BE271E0CE0101960E941F0E6CE62E
:1056A00071E081E293E00E94940ECE0101960E9487
:1056B0001A0E68EE73E080E090E00E94E60F24C0CE
:1056C0008DE191E00E945112C8010E948A118AE680
:1056D00091E00E94071280915E0290915F020E9409
:1056E0008A118AE691E00E940712BE016D5E7F4F2B
:1056F00081E293E00E94A90E60ED77E080E090E007
:105700000E94E60F612C07C00E94520B892B19F0F2
:105710000E94560BF9CFCE0143960E941A0E6620C6
:1057200009F47BCE1092070160E871E0CE0101968A
:105730000E941F0E60E070E0CE0101960E94D90722
:10574000CE0101960E941A0E80913104909132048C
:10575000892B09F462CE0E94BD118091DC039091E7
:10576000DD030E949E0781E08093300456CE4F8C6B
:1057700058A058A24F8E4DCFD8011496ED91FC91B0
:1057800015970C942E2089E392E00E9451129DCD32
:105790009801E6CE80E090E001CF86E190E00E94A3
:1057A0002C325C012FEFFC01228723871786168697
:1057B000118A108A138A128A158A148AD7011496BC
:1057C0008D919C911597892B79F0C7010E944B0709
:1057D000D7011496ED91FC911597D5011F96FC9376
:1057E000EE931E97B18AA08AF701B582A482E09158
:1057F000DC03F091DD030480F581E02D118300834B
:105800005382428235822482D782C68211861086D4
:10581000D4CE0937110509F453C00D37110509F02D
:1058200081C04EC0D7011496ED91FC9115978081EF
:1058300091818634910519F088349105E1F535861A
:1058400024868091060490910704019690930704A2
:1058500080930604880F991FFC01E452FC4FF382E9
:10586000E282B801C7010E941707882389F086E009
:1058700090E00E942C32DC0115961C921E92149727
:10588000D7011496ED91FC911597958B848B0EC0E2
:1058900086E090E00E942C32FC0115821482D70130
:1058A0001496ED91FC911597938B828B9093DD0369
:1058B0008093DC0391CE21E030E035872487C1CF8F
:1058C000C60101960E942C32D50119969C938E93A5
:1058D0001897E12CF12CEC14FD0424F50E94520BD6
:1058E000892B49F40E944F0B892BC1F388EE90E07D
:1058F0000E945112F3CF0E94560B20915E0230910C
:105900005F02282730935F0220935E02D50118962C
:10591000ED91FC911997EE0DFF1D8083BFEFEB1AFF
:10592000FB0AD9CF0C381105E9F52F8D38A12415C4
:10593000350509F41ECF6BE071E0CE0101960E949F
:105940001F0EB201CE0101960E94D907CE01019629
:105950000E941A0E009160021091610261E071E0F4
:10596000CE0101960E941F0EB801CE0101960E9441
:10597000D907CE0101960E941A0E20916002309143
:105980006102C90101969093610280936002E9E08F
:10599000E29FC001E39F900D1124FC01EC5FFD4FDD
:1059A0009082E7CE0D3811056CF40837110509F423
:1059B000BCCF0238110509F4B8CF0E36110509F035
:1059C00028CEB3CF0639110509F4AFCF2CF4013935
:1059D000110509F01ECEA9CF003A110509F4A5CF93
:1059E0000A3A110509F015CEA0CF8AEC93E00E9487
:1059F0001A0E80ED93E00E941A0E86ED93E00C944F
:105A00001A0E0F931F93CF93DF9300D0CDB7DEB75D
:105A10008A01698342E0BE016F5F7F4F0E9476106A
:105A2000882359F0898190E0982F88272A81822B3A
:105A3000F8019183808381E003C0F8011182108214
:105A40000F900F90DF91CF911F910F910895CF93F9
:105A5000DF93E1E2F3E01382128288EE93E0A0E0AC
:105A6000B0E084839583A683B7832BE231E0318352
:105A7000208325EC30E03587248724EC30E037871D
:105A8000268720EC30E0318B208B21EC30E0338B0B
:105A9000228B22EC30E0358B248B26EC30E0378BE8
:105AA000268B118E128E138E148EEEEBF3E0138282
:105AB000128284839583A683B7838DE391E09183DB
:105AC0008083CCEDD3E08FEF9FEF9BA78AA7109246
:105AD0003004109232041092310486E090E00E946B
