:100000000C94ED040C946A190C9443190C94AB12E3
:100010000C94AB120C94AB120C9415050C94850D3A
:100020000C9415050C9415050C9415050C94EA1107
:100030000C9415050C9415050C9415050C941505D8
:100040000C94F9180C9415050C94B0170C948A179D
:100050000C9415050C9415050C9415050C941505B8
:100060000C9482090C941505EE0DFE0D100E260E53
:10007000310E3C0E4B0E9A0F890F8E0F930F9A0F75
:100080009F0FA40F084AD73B3BCE016E84BCBFFD37
:10009000C12F3D6C74319ABD56833DDA3D00C77F58
:1000A00011BED9E4BB4C3E916BAAAABE00000080F1
:1000B0003F0053657269616C20636F6D6D206F6BDB
:1000C0002100457865637574652050726F677261B1
:1000D0006D0001B202FFFF0190040923A135016AFE
:1000E000020600016008000000000000000000603F
:1000F00004400000000162020000006004004000B3
:1001000000037B034CCD6C03AB03365676006804CA
:1001100002CB47A202180400058BC1010C040000A9
:100120000000037F060CC92C979797038903264686
:1001300066006C022000024004000000000244043B
:100140000000000002480400000000024C0400000F
:1001500000000250040000000002540400000000EF
:1001600002580400000000025C040000000002BC11
:10017000040000000001EC0400004000037F060CB6
:10018000C92C9797970402030D355D040904872D48
:10019000353D00A3010000000001078601FE074174
:1001A00005F120283038077E01300746019A0747BD
:1001B00004F1283038076C04F128303802160200A8
:1001C00001FB00003E000B003600010002000300AE
:1001D0000000650054FFEF0000FA80000B1282005F
:1001E000010002000000000000000000000000000C
:1001F0000000280000FFFF4581FFFFFA72000000A9
:1002000000000003E80000000100017FFFFFFE8006
:1002100001001B00000000000000000000000000C2
:1002200000003E03304000000002CAE3093E8000A7
:1002300000200000000000000040000000600000FE
:100240000041FF000000000B2A00001655000021AD
:1002500082FD872650FD800000001F000000058001
:100260000000000000000100000002000000030088
:1002700000400000000000046F0002653200005ED4
:10028000C04000000000000000000000000000006E
:1002900000FB8C6F5DFD5D08D9007C733B006C1228
:1002A000CC3200139D3200D0D6320008004000014D
:1002B000F4FFE68079020000000000D0D60000279D
:1002C00010FB0000004000000000000000000000E3
:1002D000000000000100000000000001000100001B
:1002E000000000FA36FFBC308E0005FBF0FFD95B42
:1002F000C8FFD09ABE000010A9FFF41EB200CEBB0A
:10030000F7000000010000000400020002020000EB
:100310000CFFC280000001800000CF800040000080
:1003200000000000010000000000000600000000C6
:1003300014000000000000000000000000000000A9
:1003400000000000000000000000000000000000AD
:10035000000000000000000000000000000000009D
:100360000000000000033F68B6793528BCC67ED186
:100370006C80000000400000000000B26A00000035
:1003800000000000000000000000003FF00000003E
:10039000300000000000000000000000000000002D
:1003A000000000000000000000000000000000004D
:1003B000000000254D002F706D000005AE000C02FE
:1003C000D00000000000650054FFEF0000000000B6
:1003D00000000001000044000000000C00000001CB
:1003E00000000000000065000000540000FFEF0066
:1003F00000000000000000000000000000000000FD
:1004000000400000000000000000000000000000AC
:10041000004000000000000000000000000000009C
:1004200000000000010000000200000000000000C9
:1004300000000000000000000000000000000000BC
:1004400000000000000000000000000000000000AC
:1004500000001B0000000000000000000000000081
:10046000000000000000000000000000000000008C
:10047000000000000000000000000000004000003C
:1004800000001B0000000000000000000000000051
:10049000000000000000000000000000000000005C
:1004A000000000000000000000000000000000004C
:1004B000000000000000000000000000000000003C
:1004C00000D8DCBAA2F1DEB2B8B4A88191F74A90A4
:1004D0007F916AF3F9DBA8F9B0BAA080F2CE81F37C
:1004E000C2F1C1F2C3F3CCA2B280F1C6D880BAA7E0
:1004F000DFDFDFF2A7C3CBC5B6F087A29424487034
:100500003C95406834589B78A2F183922D557DD854
:10051000B1B4B8A1D09180F270F370F27C80A8F1F0
:1005200001B09887D943D886C988BAA1F20EB89786
:1005300080F1A9DFDFDFAADFDFDFF2AAC5CDC7A91F
:100540000CC92C97979797F1A989264666B0B4BA3B
:1005500080ACDEF2CAF1B28C02A9B69800890E1600
:100560001EB8A9B4992C547CB08AA896365676F158
:10057000B9AFB4B083C0B8A89711B18F98B9AFF034
:10058000240844106418F1A329557DAF83B593AFB7
:10059000F0002850F1A3869F61A6DADEDFD9FAA326
:1005A0008696DB31A6D9F8DFBAA68FC2C5C7B28C52
:1005B000C1B8A2DFDFDFA3DFDFDFD8D8F1B8A8B290
:1005C00086B4980D355DB8AA98B0872D353DB2B682
:1005D000BAAF8C96198F9FA70E161EB49AB8AA8729
:1005E0002C547CB9A3DEDFDFA3B180F2C4CDC9F106
:1005F000B8A9B499830D355D89B9A32D557DB593FF
:10060000A30E161EA92C547CB8B4B0F19783A81180
:1006100084A50998A383F0DA240844106418D8F15B
:10062000A529557DA58595021A2E3A565A4048F9B6
:10063000F3A3D9F8F098832408441064189782A88B
:10064000F111F098A2240844106418DAF3DED8837C
:10065000A59401D9A302F1A2C3C5C7D8F18492A27F
:100660004DDA2AD84869D92AD86855DA32D8507173
:10067000D932D8705DDA3AD85879D93AD87893A374
:100680004DDA2AD84869D92AD86855DA32D8507153
:10069000D932D8705DDA3AD85879D93AD878A88A58
:1006A0009AF02850789EF38818F19F1D98A8D908D1
:1006B000D8C89F129EF315A8DA1210D8F1AFC897C8
:1006C0008734B5B994A421F3D922D8F22DF3D92ACD
:1006D000D8F235F3D932D881A4606061D961D86C81
:1006E0006869D969D8747071D971D8B1A384193D7A
:1006F0005DA3831A3E5E931030811011B8B0AF8FA6
:1007000094F2DA3ED8B49AA88729DAF8D8879A35CD
:10071000DAF8D8879A3DDAF8D8B1B9A49885022ECC
:1007200056A581000C14A397B08AF12DD928D84D75
:10073000D948D86DD968D8B1840DDA0ED8A32983E9
:10074000DA2C0ED8A3844983DA2C4C0ED8B8B0A882
:100750008A9AF520AADADFD8A840AAD0DADED8A88B
:1007600060AADAD0DFD8F19786A8319B069907AB4B
:100770009728889BF00C201440B8B0B4A88C9CF04B
:10078000042851791D301438B282ABD0982C5050C7
:1007900078789BF11AB0F08A9CA82951798B29515D
:1007A000798A2470598B2058718A4469388B394072
:1007B000688A6448318B304960A5882009715844A3
:1007C00068113964493019F1AC002C547CF08CA8C4
:1007D00004285078F1889726A85998AC8C022646B0
:1007E00066F0899CA8295179247059446938644875
:1007F00031A98809205970AB11384069A8193148CE
:10080000608CA83C415C207C00F187981986A86E1A
:10081000767EA999882D557D9EB9A38A228A6E8AF3
:10082000568A5E9FB183062646660E2E4E6E9DB892
:10083000AD002C547CF2B18CB499B9A32D557D81B7
:1008400091AC38AD3AB58391AC2DD928D84DD94863
:10085000D86DD968D88C9DAE29D904AED851D904A9
:10086000AED879D904D881F39DAD008DAE1981AD94
:10087000D901D8F2AEDA26D88E912983A7D9ADADA9
:10088000ADADF32AD8D8F1B0AC89913E5E76F3AC29
:100890002E2EF1B18C5A9CAC2C2828289CAC3018F8
:1008A000A8988128343C9724A728343C9C24F2B093
:1008B00089AC912C4C6C8A9B2DD9D8D851D9D8D8D9
:1008C00079D9D8D8F19E88A331DAD8D8912DD928F2
:1008D000D84DD948D86DD968D8B18393353D802596
:1008E000DAD8D88569DAD8D8B49381A328343CF310
:1008F000AB8BF8A391B609B4D9ABDEFAB0879CB93B
:10090000A3DDF1A3A3A3A395F1A3A3A39DF1A3A3A7
:10091000A3A3F2A3B49080F2A3A3A3A3A3A3A3A32E
:10092000A3A3B2A3A3A3A3A3A3B087B599F1A3A341
:10093000A398F1A3A3A3A397A3A3A3A3F39BA3A308
:10094000DCB9A7F1262626D8D8FF36303530206608
:1009500061696C656400363035302073756363659A
:1009600073730000000000240027002A000000002C
:100970000023002600290000000000250028002B8D
:100980000004040404040404040202020202020338
:100990000303030303010204081020408001020442
:1009A00008102001020408102050524F4752414DB8
:1009B0004D494E47004350205245414459202E2E68
:1009C0002E000000000800020100000304070000E0
:1009D000000000000000B4368A3611241FBECFEF9D
:1009E000D8E0DEBFCDBF11E0A0E0B1E0E8EAFBE770
:1009F00002C005900D92A439B107D9F723E0A4E90C
:100A0000B1E001C01D92A93EB207E1F714E0CCEEBF
:100A1000D4E004C02197FE010E948D3BCB3ED1075C
:100A2000C9F70E949C1F0C94C73D0C94000085EDF3
:100A30008093BC008091BC0084FDFCCF1092DE024C
:100A4000089540916502262F30E0240F311D213298
:100A50003105DCF42091DE022430C9F4FC0180E091
:100A600090E0861758F4309165022191DC01AD5B6E
:100A7000BD4FA30FB11D2C930196F3CF809165025A
:100A8000680F6093650280E0089581E0089582E038
:100A900008950895E091970280919602E81730F446
:100AA000F0E0E856FD4F808190E008958FEF9FEFD2
:100AB00008959091970280919602981750F4E92F2B
:100AC000F0E0E856FD4F208130E09F5F9093970261
:100AD00002C02FEF3FEFC90108958091960290E088
:100AE00020919702821B91090895CF92DF92EF9295
:100AF000FF920F931F93CF93DF937C01262F972FA5
:100B00008A018091DF02882391F0C62FD72F6E01D2
:100B1000C40ED51ECC15DD0571F06991D701ED919C
:100B2000FC910190F081E02DC7010995F3CF642F6E
:100B3000822F0E942105C801DF91CF911F910F9153
:100B4000FF90EF90DF90CF900895CF93DF931F92A7
:100B5000CDB7DEB769832091DF022223D1F0209147
:100B60000203203240F021E030E0FC013383228395
:100B700080E090E015C08091E002E82FF0E0EF51B6
:100B8000FD4F998190838F5F8093E00280930203F1
:100B900005C061E0CE0101960E94210581E090E050
:100BA0000F90DF91CF910895089580E090E008952F
:100BB000E0911F02F0912002309781F080859185AD
:100BC0008130910521F482819381019605C0892BA2
:100BD00029F48281938101979383828308954F92B0
:100BE0005F926F927F928F929F92AF92BF92CF92BD
:100BF000DF92EF92FF920F931F93CF93DF93CDB7C6
:100C0000DEB727970FB6F894DEBF0FBECDBF809139
:100C100017029091180224EFF22EF9822EE22A8315
:100C2000BE016F5F7F4F0E94E91E882309F45BC1FC
:100C300065E070E080E090E00E94B3180091170238
:100C40001091180286EFE82EE98242E0BE016F5F44
:100C50007F4FC8010E949119882309F444C169811A
:100C600070E080E090E00E94583720E030E040E8FB
:100C700053E40E94B7374B015C018A81682F70E012
:100C800080E090E00E9458379B01AC01C501B4019F
:100C90000E941039F801228D338D448D558D0E94AC
:100CA0000F39F80126893789408D518D0E94B73759
:100CB0004B015C01F80122A133A144A155A10E947E
:100CC00010399B01AC01F801668D778D80A191A14F
:100CD0000E94EE399B01AC01C501B4010E9410399C
:100CE0004B015C0160933D0270933E0280933F0292
:100CF000909340028091170290911802F982FA8233
:100D0000BE016F5F7F4F0E94E91E882309F4EBC08C
:100D10006AE170E080E090E00E94B3180091170251
:100D200010911802E98243E0BE016F5F7F4FC80156
:100D30000E949119882309F4D6C020E030E048ECE5
:100D400051E4C501B4010E940F396B017C019B0184
:100D5000AC010E94B7374B015C01698170E080E013
:100D600090E00E94583720E030E040E853E40E94D1
:100D7000B7372B013C016A8170E080E090E00E946F
:100D800058379B01AC01C301B2010E9410392B01FD
:100D90003C016B8170E080E090E00E94583720E0D9
:100DA00030E040E85BE30E94B7379B01AC01C30130
:100DB000B2010E9410396C837D838E839F83F8017A
:100DC00026A537A540A951A9C501B4010E94B7378E
:100DD0002B013C01F80122A533A544A555A5C70167
:100DE000B6010E94B7379B01AC01C301B2010E945A
:100DF0001039F80126A137A140A551A50E9410394C
:100E00009B01AC016C817D818E819F810E940F3995
:100E10002B013C01F80122AD33AD44AD55ADC50108
:100E2000B4010E94B7374B015C01F80126A937A92C
:100E300040AD51ADC701B6010E94B7379B01AC016F
:100E4000C501B4010E941039F80122A933A944A9AF
:100E500055A90E9410399B01AC01C301B2010E9447
:100E6000EE396B017C015801F6E4AF0EB11C9B0119
:100E7000AC010E94B737F501208131814281538155
:100E80000E94B7374B015C01F801EE5BFF4F2081F8
:100E9000318142815381C701B6010E94B7379B015E
:100EA000AC01C501B4010E941039F801FE96208101
:100EB0003181428153810E941039609339027093CD
:100EC0003A0280933B0290933C0225EC3DE947E7D0
:100ED0005FE30E94EE39609335027093360280938F
:100EE00037029093380227960FB6F894DEBF0FBEF4
:100EF000CDBFDF91CF911F910F91FF90EF90DF90C9
:100F0000CF90BF90AF909F908F907F906F905F90A9
:100F10004F9008954F925F926F927F928F929F921F
:100F2000AF92BF92CF92DF92EF92FF920F931F93F7
:100F3000CF93DF93CDB7DEB72A970FB6F894DEBF15
:100F40000FBECDBF7C010E94ED18D7011C960D91FC
:100F50001D912D913C911F97AB01BC01401B510B82
:100F6000620B730B1A968D919C911B97092E000CA6
:100F7000AA0BBB0B84179507A607B70708F043C158
:100F8000F701008111810115110509F4FEC01A82D3
:100F90001982812CF5E09F2EABE0CA2ED12CB3E252
:100FA000AB2EB12C8DE1682E712CD8011896ED91E5
:100FB000FC911997908114968C911497892B8083BA
:100FC0001696ED91FC911797908114968C91149739
:100FD000809589238083C6010197F1F71696ED91DC
:100FE000FC911797908114968C911497892B80838C
:100FF000C5010197F1F71696ED91FC911797908135
:1010000014968C9114978095892380831896ED917E
:10101000FC911997908114968C91809589238083F7
:101020000E948E18DC01CB01805B994BAF4FBF4F04
:10103000F80186879787A08BB18BD8011A96ED911E
:10104000FC911B97908115968C918923D9F00E9471
:101050008E18F8012685378540895189261737076C
:101060004807590750F70EC00E948E18D8011E96E7
:101070002D913D914D915C91519726173707480767
:10108000590788F1D8011A96ED91FC911B97908130
:1010900015968C91892341F30E948E18F8012485BE
:1010A0003585DC01CB01820F931FA11DB11D868701
:1010B0009787A08BB18BD8011A96ED91FC911B9765
:1010C000908115968C91892399F00E948E18D801F1
:1010D0001E962D913D914D915C91519726173707A2
:1010E0004807590740F79A94F801648575853EC012
:1010F0000E948E18F80124853585A90145505109B3
:1011000026853785DA01A21BB30B6A0F7B1F611599
:10111000710549F3811002C080E01FC0882D282F7F
:1011200030E0F9013197EE0FFF1F41E050E04C0F26
:101130005D1FE40FF51F408151814617570768F482
:10114000220F331FE1E0F0E0EC0FFD1FE20FF31F71
:1011500051834083815019F7DFCFFE013196E80FAC
:10116000F11DE80FF11D718360838394891498F455
:10117000672F772766956695C301861B970BBC0181
:1011800080E090E00E94B31810CF9FEF8FEFF7013F
:101190009087818738C0892D8E7FFE01E80FF11D71
:1011A000018112810FB6F894DEBF0FBECDBF0E9441
:1011B000ED18D7011C966D937D938D939C931F978B
:1011C000C8014C9669E370E00E94793B81E090E0B1
:1011D000012B11F480E090E08B01681779070CF483
:1011E0008C010115110561F00E94ED18D7011C96C4
:1011F0006D937D938D939C931F97902F812FC7CFD5
:1012000003E610E0F1CF2A960FB6F894DEBF0FBECA
:10121000CDBFDF91CF911F910F91FF90EF90DF90A5
:10122000CF90BF90AF909F908F907F906F905F9086
:101230004F9008958F929F92AF92BF92CF92DF927C
:10124000EF92FF920F931F93CF93DF934A015B01BD
:101250006801790120E030E0A901C501B4010E94D4
:10126000513787FF09C020E030E044EB53E4C5016B
:10127000B4010E94103902C0C501B4010E94603A55
:10128000EB0120E030E0A901C701B6010E9451370F
:1012900087FF09C020E030E044EB53E4C701B6010A
:1012A0000E94103902C0C701B6010E94603ACE0107
:1012B000861B970BBC018D549F4F87369140A0F041
:1012C0009B0128563140C90168E671E00E94793BD4
:1012D00040E35DEF649FC001659F900D749F900D8A
:1012E0001124B901680F791FCB01DF91CF911F91B4
:1012F0000F91FF90EF90DF90CF90BF90AF909F90B5
:101300008F9008951F920F920FB60F9211242F9372
:101310003F934F935F936F937F938F939F93AF937D
:10132000BF93EF93FF938091B900887F803609F4D3
:101330009CC068F5883209F45BC090F4803109F4F0
:1013400054C038F4882309F4F6C0883009F44DC03D
:10135000F6C0883109F44CC0803209F45DC0EFC09A
:10136000803409F468C048F4803309F455C08833E8
:1013700009F0E5C08093DC02D8C0803509F44FC085
:10138000883509F45DC0883409F0D9C0D6C08839E1
:1013900009F4C7C0A8F4883709F467C038F4883660
:1013A00009F463C0803709F460C0C9C0883809F403
:1013B000B8C0803909F45FC0803809F0C0C05BC094
:1013C000803B09F486C038F4803A09F466C0883A54
:1013D00009F47FC0B4C0803C09F4A7C0883C09F47C
:1013E000A4C0883B09F48AC0AAC08091B90210C089
:1013F0009091DB028091DA02981770F5E091DB02A0
:1014000081E08E0F8093DB02F0E0E654FD4F808197
:101410008093BB0085EC86C08093DC028EC0E09197
:10142000DB0281E08E0F8093DB028091BB00F0E055
:10143000E654FD4F80839091DB028091DA026EC00A
:10144000E091DB0281E08E0F8093DB028091BB0094
:10145000F0E0E654FD4F80838091DD0281116DC084
:1014600081E08093B80284EA61C083E08093DE0269
:1014700010928902CFCF80918902803208F051C04A
:10148000E091890281E08E0F809389028091BB00F8
:10149000F0E0E759FD4F8083BDCF85EC8093BC0021
:1014A0001092DE0280918902803230F4E09189024C
:1014B000F0E0E759FD4F10826091890270E0E09101
:1014C0006702F091680289E692E00995109289021C
:1014D00036C084E08093DE021092660210926502AC
:1014E000E0916302F0916402099580916502811197
:1014F00005C081E08093650210924302E09166028C
:1015000081E08E0F80936602F0E0ED5BFD4F8081FD
:101510008093BB009091660280916502981708F451
:1015200079CF85E88093BC000AC085EC8093BC002D
:101530001092DE0204C01092DC020E941705FF9197
:10154000EF91BF91AF919F918F917F916F915F913B
:101550004F913F912F910F900FBE0F901F901895B4
:10156000EF92FF920F931F93CF93DF9300D0CDB7ED
:10157000DEB7142F91E09093DF0280930103109265
:10158000E0021092020380EA93E029833A830E94EA
:10159000A5052981022FE22E3A81F32E8E2D801B84
:1015A000811740F4F70161917F0180EA93E00E9486
:1015B000A505F4CF0E94871A91E0811190E0892F50
:1015C0000F900F90DF91CF911F910F91FF90EF90AF
:1015D0000895CF93DF931F92CDB7DEB749839E0165
:1015E0002F5F3F4F41E00E94B00A0F90DF91CF91F3
:1015F00008952F923F924F925F926F927F928F92B7
:101600009F92AF92BF92CF92DF92EF92FF920F9391
:101610001F93CF93DF9300D000D000D0CDB7DEB7BB
:10162000F82EE62E4D8369010E94ED184B015C01F6
:10163000312C1E82222423949D81892F90E09C834B
:101640008B832801612C712C4D81341608F052C017
:101650002092DF02F09201031092E0021092020346
:101660006E2D80EA93E00E94A5050E94871A2092C1
:10167000DF02F09201031092E002109202036B81EC
:101680007C81631971096132710514F060E270E0C8
:101690008F2D0E94E41A90919602809197029817DC
:1016A00019F10115110599F4F6012E81E20FF11DD2
:1016B00027FDFA95FA83E98380EA93E00E945905B1
:1016C000E981FA8180832E812F5F2E83E4CF0E94EF
:1016D000ED18DC01CB0188199909AA09BB09841509
:1016E0009505A605B70500F38D81813208F080E2EB
:1016F000380EAACF01151105D9F00E94ED18DC01B2
:10170000CB0188199909AA09BB0920E030E08017AC
:101710009107A207B30760F04D81842F90E04E81BE
:10172000242F440F330B2817390714F42FEF2E837F
:101730008E8126960FB6F894DEBF0FBECDBFDF9127
:10174000CF911F910F91FF90EF90DF90CF90BF90BE
:10175000AF909F908F907F906F905F904F903F9051
:101760002F900895BF92CF92DF92EF92FF920F9346
:101770001F93CF93DF931F92CDB7DEB7F82EE62EDF
:10178000C42EB22ED02E08EE13E09E012F5F3F4FE5
:1017900041E00E94F90A882321F1EC2DF0E0EB19D9
:1017A000F109319621E030E002C0220F331FBA94D4
:1017B000E2F7215031090E2E01C0220F0A94EAF7F8
:1017C0008D2D01C0880FEA95EAF7422F4095998147
:1017D00049232823422B49836E2D8F2D0E94E90A2D
:1017E00001C080E00F90DF91CF911F910F91FF908A
:1017F000EF90DF90CF90BF900895CF92DF92EF925D
:10180000FF920F931F93CF93DF931F92CDB7DEB755
:10181000F82EE62ED42EC22E08EE13E09E012F5F86
:101820003F4F41E00E94F90A9981CC2041F041E00C
:1018300050E001C0440FDA94EAF7492B09C021E0D7
:1018400030E0A90101C0440FDA94EAF7409549233A
:1018500049836E2D8F2D0E94E90A0F90DF91CF9161
:101860001F910F91FF90EF90DF90CF900895462F3A
:101870006EE6FC0180810C94E90A0F931F934423C8
:1018800049F09B01FC0108EE13E064E780810E94AF
:10189000F90A02C0FB0110821F910F9108950F9366
:1018A0001F93CF93DF93EC019C012F5F3F4F08EE16
:1018B00013E042E062E788810E94F90A298130E062
:1018C000322F22278A81A901482BCA01DF91CF91AB
:1018D0001F910F91089521E042E06AE6FC018081AA
:1018E0000C94FD0B0F931F93CF93DF93EC019C019E
:1018F0002F5F3F4F08EE13E041E06AE388810E94CA
:10190000F90A8981DF91CF911F910F910895611597
:10191000710539F4DC011696ED91FC911797608101
:1019200071816436710511F080E0089581E00895B9
:10193000DC011696ED91FC911797208131812634B8
:10194000310539F02834310531F403C0223931052D
:1019500049F481E00895DC01ED91FC913097B1F3F9
:10196000C90109942339310574F42838310589F304
:1019700034F42E55310922303105A8F4EACF2D3840
:10198000310589F4E6CF2D3A310519F33CF4263AB6
:101990003105F9F22B3A310531F4DBCF215B310906
:1019A00023303105B0F280E00895FC0186819781F3
:1019B000892B09F40895A681B78150968D919C9149
:1019C0005197009719F097838683F5CF0895CF92AA
:1019D000DF92EF92FF920F931F93CF93DF93EC016F
:1019E000EE81FF8106851785C088D188E288F3885B
:1019F000E114F10491F0C7010E94D50CF701868132
:101A00009781892B21F0C7010E94E70CF7CFEE8167
:101A1000FF81828993890E94433C0115110519F0C9
:101A2000F801D18AC08AC114D10419F0F6011787D0
:101A300006878E819F810E94433C1F830E83DF9126
:101A4000CF911F910F91FF90EF90DF90CF9008956D
:101A5000FC0186819781892B09F40895A681B781BD
:101A60001E968D919C911F97009719F097838683FE
:101A7000F5CF0895CF93DF93EC0160E08C810E9455
:101A80000B1861E08E81DF91CF910C940B18CF93EE
:101A9000DF93EC01798368836230710551F0643023
:101AA000710571F061307105A9F4DF91CF910C944B
:101AB0003A0D60E08E810E940B1861E08C8106C0B7
:101AC00060E08C810E940B1860E08E81DF91CF91E5
:101AD0000C940B18DF91CF910895CF93DF93EC0115
:101AE000842F7B836A834C835D833F832E8361E0F5
:101AF0000E943B1861E08E810E943B1864E070E018
:101B0000CE01DF91CF910C94470D1F920F920FB62B
:101B10000F9211242F933F934F935F936F937F9373
:101B20008F939F93AF93BF93EF93FF93E091410205
:101B3000F0914202309709F00995FF91EF91BF9122
:101B4000AF919F918F917F916F915F914F913F9155
:101B50002F910F900FBE0F901F9018956091F0017C
:101B60007091F101E4E9F1E020E030E02617370759
:101B7000A4F44081042E000C550B399648175907E0
:101B800049F449E0429FC001439F900D11248C56B7
:101B90009E4F08952F5F3F4FE9CF80E090E008957A
:101BA000CF93DF9397FD0BC0EB010E94AE0D219701
:101BB000CC0FDD1FC80FD91F89819A8100C0DF912A
:101BC000CF910895FB01EB54F109E730F10508F0DE
:101BD0006CC0DC01EC5CFF4F0C948D3B12968D9138
:101BE0009C9113970E94AE0DFC0187819085909384
:101BF0001A02809319020E944E1F0FC012968D91F7
:101C00009C9113970E94AE0DFC0187819085909363
:101C10001A02809319020E94081F0E94CA3A36C015
:101C200012968D919C9113970E94AE0DFC018781B5
:101C3000908590931C0280931B020E948A07E0917A
:101C40001B02F0911C022085918530C00E94EF0597
:101C5000609135027091360280913702909138027E
:101C600015C00E94EF056091390270913A0280918F
:101C70003B0290913C020AC00E94EF0560913D0238
:101C800070913E0280913F02909140020E94603A22
:101C9000262F972F0BC061E070E012968D919C91DA
:101CA00013970E94D00D0C9477180895822F0895F1
:101CB0000F931F93CF93DF9397FD0BC08A01EB0126
:101CC0000E94AE0D2197CC0FDD1FC80FD91F1A83BC
:101CD0000983DF91CF911F910F9108958F929F9269
:101CE000AF92BF92CF92DF92EF92FF920F931F932A
:101CF000CF93DF937C01009759F0FC0183858F3FE0
:101D000021F00E94C81DEC0103C0F701C681D781F4
:101D1000C7010E94DD1E6C01F7012081318122394B
:101D2000310509F477C0E4F42E35310509F44BC0D0
:101D30004CF42634310509F40EC12834310509F478
:101D40000AC1DEC02838310509F442C02D383105FA
:101D500009F44BC02F35310509F0D2C08C2F3FC09C
:101D60002D3A310509F4A3C0BCF4263A310509F433
:101D700093C02B3A310509F0C3C0F70182819381EA
:101D80000E94AE0DFC018781908590931A0280938A
:101D900019020E944E1F99C0223B310509F498C0D8
:101DA000233B310509F49FC0213B310509F0A8C050
:101DB0000E94EF056091390270913A0280913B02D6
:101DC00090913C029AC08C2F0E94E2176C01C5C012
:101DD00061E070E0F701828193810E94D00D0E9442
:101DE000E2176C01C0E0D0E0BAC0F70182819381B4
:101DF0000E94AE0DFC018781908590931C02809318
:101E00001B020E948A07E0911B02F0911C020085D0
:101E1000118576C061E070E0F701828193810E94B4
:101E2000D00D0E94E2176C01F701C281D38162E0FC
:101E300070E0CE010E94D00D8C0164E070E0CE0114
:101E40000E94D00D4C01C016D10609F471C00E9449
:101E5000ED18092C000CAA08BB08DC01CB0188197D
:101E60009909AA09BB0985369105A105B10508F4B0
:101E70005FC0A60162E070E0F701828193810E9459
:101E8000580E0E94ED18AB0164E070E0F70182810A
:101E900093810E94580E61C061E070E0F701828179
:101EA00093810E94D00D0E9477188C0129C0F70100
:101EB000828193810E94AE0DFC0187819085909371
:101EC0001A02809319020E94081F0E94CA3A15C084
:101ED0000E94EF05609135027091360280913702C1
:101EE000909138020AC00E94EF0560913D02709106
:101EF0003E0280913F02909140020E94603A8B0125
:101F0000F7E0CF16D10438F5F601E55CFF4F0C94ED
:101F10008D3B91E00C171D07E1F41AC091E0C0174A
:101F2000D107BCF015C091E00C171D0794F010C04C
:101F3000C1E0D0E091E00C171D0751F40AC091E018
:101F40000C171D0734F404C091E0C017D1070CF43E
:101F500090E0892F06C081E004C0C1E0D0E0860196
:101F6000E9CFDF91CF911F910F91FF90EF90DF901C
:101F7000CF90BF90AF909F908F90089583E093E0B3
:101F80000C94B7151F93CF93DF9383E093E00E94E7
:101F9000D915892BD1F30E94BE0FEC01182F83E0D5
:101FA00093E00E94D915892BD1F30E94BE0F282FF0
:101FB0001D3F19F4CE01992715C099272D3F91F0A7
:101FC0009E0133274091EE015091EF0142275327A4
:101FD000482759275093EF014093EE01982F882707
:101FE000820F931FDF91CF911F91089580911D0261
:101FF00090911E02009739F061E00E9469108BE316
:102000009FE10197F1F70895BC0180911D02909125
:102010001E02009711F00C947C170895CF93DF9364
:10202000EC01888599859B878A8782E090E0998773
:10203000888764E070E08C859D850E94470D64E090
:1020400070E08E859F85DF91CF910C94470D21E044
:1020500001C0220F6A95EAF7DC011C962C931C97AD
:102060001A965C934E931997ED91FC910484F58533
:10207000E02D60E00994DC01ED91FC910684F78588
:10208000E02D41E0099581E090E0089508950895DC
:102090000F931F93CF93DF93062F0F70423019F4E5
:1020A00040E0602F10C0142F262FEC0130E0B90162
:1020B00084E0759567958A95E1F7CE010E94561ADE
:1020C000412F602FCE01DF91CF911F910F910C9482
:1020D000561ADC01ED91FC910684F785E02D40E075
:1020E00009940F931F93CF93DF93EC01423018F0C4
:1020F0008C8188608C834F836887222329F041304C
:1021000019F48C8184608C8364E670E080E090E058
:102110000E94B3186C8164FD31C0E881F9810684A6
:10212000F785E02D42E063E0CE0109950BE416E46B
:10213000C8010197F1F7E881F9810684F785E02D60
:1021400042E063E0CE010995C8010197F1F7E8810B
:10215000F9810684F785E02D42E063E0CE01099520
:1021600083E592E00197F1F7E881F9810684F7852C
:10217000E02D42E062E0CE01099516C06062CE011A
:102180000E9469108BE496E40197F1F76C8160621C
:10219000CE010E94691083E592E00197F1F76C810E
:1021A0006062CE010E9469106C816062CE010E9463
:1021B000691084E08D836CE0CE010E94691061E0BB
:1021C000CE010E9469108BE39FE10197F1F782E055
:1021D0008E8366E0CE010E946910E881F981048453
:1021E000F585E02D6FEFCE01DF91CF911F910F911B
:1021F0000994FC0123812223B9F0918190956923F0
:102200006083828191E09093DF02809301031092BA
:10221000E0021092020380EA93E00E94A5050E946A
:10222000871A282F30E002C020E030E081E090E003
:10223000232B11F080E090E00895FC018485882331
:10224000A9F0218532852115310519F4611106C0E7
:1022500007C02130310521F4611102C0858701C01A
:1022600015866585CF010E960C94F9100895FF929E
:102270000F931F93CF93DF93EC01162F042FF22EB1
:102280008B85888B0E94271D61E088890E94E41A53
:1022900091E0811101C090E0998B80EA93E00E9467
:1022A00059058E878989882339F01F861C8260E052
:1022B000CE010E960E94F9102F2D402F612FCE01D6
:1022C000DF91CF911F910F91FF900C947110CF92DD
:1022D000DF92EF92FF92CF93DF93EC01603282E0C6
:1022E00078070CF03DC077FD06C0653B71052CF00A
:1022F00064EB70E002C060E070E0898128E830E0C3
:102300006901C81AD10887FDD394CC0CDD1CCC0C14
:10231000DD1C0D2C000CEE08FF088A8128E532E058
:10232000281B310987FD3395220F331F220F331FDE
:10233000C901330FAA0BBB0B9C01AD012C193D0940
:102340004E095F09DB010E949F3824EB30E040E03A
:1023500050E00E947538C20ED31EE41EF51EB60171
:1023600088818C3080F5998148E850E0491B5109FB
:1023700097FD5395440F551F440F551F641775075C
:1023800084F09A8128E532E0291B310997FD3395C5
:10239000220F331F220F331FAB01261737070CF410
:1023A000A90142505109440F551F2FB7F89490E0EE
:1023B000FC01EE0FFF1F8E0F9F1FFC01ED50FE4F23
:1023C000528341832FBFDF91CF91FF90EF90DF9039
:1023D000CF9008951F920F920FB60F9211242F9352
:1023E0003F934F935F936F937F938F939F93AF939D
:1023F000BF93EF93FF9380918C0287FF05C01092EB
:102400008500109284001BC020918C02022E000CCB
:10241000330B8091F20190E02817390784F4809102
:102420008C02082E000C990BFC01EE0FFF1F8E0F83
:102430009F1FFC01ED50FE4F808186FD15C08091ED
:102440008C028F5F80938C0220918C02022E000CF4
:10245000330B8091F20190E028173907C4F4809182
:102460008C028C3064F113C080918C02082E000C19
:10247000990BFC01EE0FFF1F8E0F9F1FFC01ED500B
:10248000FE4F808160E08F730E940B18D8CF80913F
:10249000840090918500049680349C4918F480E46F
:1024A0009CE905C0809184009091850004969093EA
:1024B0008900809388008FEF80938C023BC020912D
:1024C00084003091850080918C02082E000C990BBD
:1024D000FC01EE0FFF1F8E0F9F1FFC01ED50FE4F02
:1024E00081819281820F931F90938900809388004D
:1024F00080918C02082E000C990BFC01EE0FFF1F3F
:102500008E0F9F1FFC01ED50FE4F808186FF12C091
:1025100080918C02082E000C990BFC01EE0FFF1F1E
:102520008E0F9F1FFC01ED50FE4F808161E08F7385
:102530000E940B18FF91EF91BF91AF919F918F91E6
:102540007F916F915F914F913F912F910F900FBEAF
:102550000F901F9018951F920F920FB60F92112493
:102560000F900FBE0F901F9018952F923F924F9291
:102570005F926F927F928F929F92AF92BF92CF9213
:10258000DF92EF92FF920F931F93CF93DF93CDB71C
:10259000DEB768970FB6F894DEBF0FBECDBF8C01D3
:1025A000DC0113961C9213978D919C910E946B0CE9
:1025B00057E0E52EF12CF801838181FD2DC0B1E0BB
:1025C000EB1AF108F80169F4EB59FF4F1082118200
:1025D000128213826FE070E080E090E00E94B318F6
:1025E0001BC0808191810E94720CD80113968C933C
:1025F00013978D919C910E944F0CF80190878783CF
:10260000238124FD03C081159440A8F2D8018D9147
:102610009C910E946B0CCFCFD80113968C9181FFB7
:1026200003C245E1E42EF12CD80117962D913C917F
:10263000189715968D919C9116972817390770F465
:10264000F801808191810E944F0CD80118969C93CB
:102650008E931797B1E0EB1AF108F9F44801E9E01D
:102660008E0E911CD80115964C911597B4018D9141
:102670009C910E943D0CF8018781908525813681CF
:10268000821B930B908787830190F081E02D81144A
:10269000910451F48080918007C065E070E080E093
:1026A00090E00E94B318C0CFF401A480B12CBA2CE2
:1026B000AA248581A82AC084D12CDC2CCC24818535
:1026C000C82AE484F12CFE2CEE248585E82A60815A
:1026D00070E0762F66278181682B072E000C880B0F
:1026E000990B0E94583720E030E040E858E30E9400
:1026F000B7372B013C011801F9E42F0E311CD10131
:102700006D937D938D939C931397B501BB0C880BB0
:10271000990B0E94583720E030E040E858E30E94CF
:10272000B7374B015C01F10164837583868397831E
:10273000B601DD0C880B990B0E94583720E030E081
:1027400040E858E30E94B73769837A838B839C8380
:10275000D10118966D937D938D939C931B97B70130
:10276000FF0C880B990B0E94583720E030E040E8BE
:1027700058E30E94B7376D837E838F839887F1017A
:1027800064877587868797879B01AC01C501B40173
:102790000E94B7376B017C0129813A814B815C81B2
:1027A000C301B2010E94B7379B01AC01C701B6015A
:1027B0000E940F399B01AC010E94103969877A870A
:1027C0008B879C871801F9E52F0E311CD1016D9381
:1027D0007D938D939C931397A5019401C301B2013E
:1027E0000E94B7376B017C012D813E814F81588556
:1027F00069817A818B819C810E94B7379B01AC01F2
:10280000C701B6010E9410399B01AC010E9410392A
:102810006D877E878F87988BF101648375838683AC
:102820009783A3019201C301B2010E94B7376B01E4
:102830007C01A5019401C501B4010E94B7379B0139
:10284000AC01C701B6010E940F396B017C012981DF
:102850003A814B815C81CA01B9010E94B7379B0163
:10286000AC01C701B6010E940F396B017C012D81BB
:102870003E814F815885CA01B9010E94B7379B013B
:10288000AC01C701B6010E9410396B017C01D10176
:1028900018966D937D938D939C931B97A301920142
:1028A000C301B2010E941039698B7A8B8B8B9C8B90
:1028B000A5019401C501B4010E9410396D8B7E8B76
:1028C0008F8B988FA301920169897A898B899C8962
:1028D0000E94B7372B013C01A50194016D897E89C7
:1028E0008F89988D0E94B7379B01AC01C301B2015B
:1028F0000E94103920E030E040E85FE30E940F3989
:102900002B013C0129813A814B815C816D897E8953
:102910008F89988D0E94B7374B015C012D813E81D4
:102920004F81588569897A898B899C890E94B7373C
:102930009B01AC01C501B4010E940F39A3019201B2
:102940000E948F394B015C01A7019601C701B601B6
:102950000E94B7376B017C012D853E854F855889D4
:10296000CA01B9010E94B737A70196010E94103928
:102970000E94F43A9B01AC0169857A858B859C8520
:102980000E94EE390E94BF392B013C0129853A850E
:102990004B855C85CA01B9010E94B737A701960132
:1029A0000E9410390E94F43A9B01AC016D857E852E
:1029B0008F8598890E94EE390E94BF396B017C0196
:1029C0001801B5E62B0E311C20EE3EE245E652E43E
:1029D000C501B4010E94B737F1016083718382831E
:1029E00093835801F9E6AF0EB11C20EE3EE245E6B6
:1029F00052E4C301B2010E94B737D5016D937D93B4
:102A00008D939C9313975801BDE6AB0EB11C20EE3D
:102A10003EE245E652E4C701B6010E94B737F50130
:102A20006083718382839383D8018D919C91689692
:102A30000FB6F894DEBF0FBECDBFDF91CF911F91CF
:102A40000F91FF90EF90DF90CF90BF90AF909F904D
:102A50008F907F906F905F904F903F902F900C944D
:102A60006B0C8F929F92AF92BF92CF92DF92EF92B8
:102A7000FF920F931F93CF93DF93EC010E942F1BC4
:102A800086E0C82ED12C7E0181E8E80EF11CF7010A
:102A900080809180A280B380CE010E942F1BF1E044
:102AA000CF1AD108B9F0F701408151816281738159
:102AB00095018401CE010E941A09181619061CF40A
:102AC00004972CF707C022273327281B390B243003
:102AD0003105ECF6F7016081718182819381DF918C
:102AE000CF911F910F91FF90EF90DF90CF90BF900B
:102AF000AF909F908F9008950895CF92DF92EF92BC
:102B0000FF920F931F93CF93DF936C017A018B0198
:102B1000C0E0D0E0CE15DF0589F0D8016D918D01C0
:102B2000D601ED91FC910190F081E02DC60109954F
:102B3000892B11F47E0102C02196ECCFC701DF91F1
:102B4000CF911F910F91FF90EF90DF90CF9008955C
:102B5000FC01538D448D252F30E0842F90E0821BA3
:102B6000930B541710F0CF96089501970895FC0128
:102B7000918D828D981761F0828DDF01A80FB11DB4
:102B80005D968C91928D9F5F9F73928F90E00895D8
:102B90008FEF9FEF0895FC01918D828D981731F092
:102BA000828DE80FF11D858D90E008958FEF9FEFE6
:102BB0000895FC01918D228D892F90E0805C9F4FBC
:102BC000821B91098F739927089583E093E00E94F7
:102BD000D91521E0892B09F420E0822F0895FC010A
:102BE000848DDF01A80FB11DA35ABF4F2C91848D96
:102BF00090E001968F739927848FA689B7892C93CB
:102C0000A089B1898C9180648C93938D848D981365
:102C100006C00288F389E02D80818F7D808308952E
:102C2000EF92FF920F931F93CF93DF93EC0181E01C
:102C3000888F9B8D8C8D981305C0E889F9898081D8
:102C400085FD24C0F62E0B8D10E00F5F1F4F0F7314
:102C50001127E02E8C8DE8120CC00FB607FCFACFBE
:102C6000E889F989808185FFF5CFCE010E94EF15B3
:102C7000F1CF8B8DFE01E80FF11DE35AFF4FF0827B
:102C80000B8FEA89FB898081806207C0EE89FF890A
:102C90006083E889F98980818064808381E090E0A5
:102CA000DF91CF911F910F91FF90EF900895CF93F7
:102CB000DF93EC01888D8823C9F0EA89FB89808144
:102CC00085FD05C0A889B9898C9186FD0FC00FB616
:102CD00007FCF5CF808185FFF2CFA889B9898C9157
:102CE00085FFEDCFCE010E94EF15E7CFDF91CF91A9
:102CF000089580E090E0892B29F00E94E51581116C
:102D00000C9400000895833081F028F4813099F00C
:102D10008230A1F008958730A9F08830B9F084306E
:102D2000D1F4809180008F7D03C0809180008F77E7
:102D300080938000089584B58F7702C084B58F7D1D
:102D400084BD08958091B0008F7703C08091B0005A
:102D50008F7D8093B000089508950E94A53D0F9344
:102D60001F93CF93DF93EC0188819981009729F01D
:102D70002A813B812617370788F48B016F5F7F4FCD
:102D80000E94DB3C009761F0998388831B830A8350
:102D90002C813D81232B11F4FC01108281E001C0C4
:102DA00080E0DF91CF911F910F910895CF93DF9332
:102DB000EC0188819981009711F00E94433C1982AF
:102DC00018821D821C821B821A82DF91CF91089586
:102DD000EF92FF920F931F93CF93DF93EC017B0150
:102DE0008A01BA010E94AF16811104C0CE010E946F
:102DF000D61607C01D830C83B701888199810E9474
:102E0000C03DCE01DF91CF911F910F91FF90EF90C8
:102E10000895EF92FF920F931F93CF93DF93EC01EE
:102E20008B016115710551F0CB010E9413377C01B4
:102E3000BC01CE010E94AF16811104C0CE010E94D8
:102E4000D61607C0FD82EC82B801888199810E9464
:102E50000C37CE01DF91CF911F910F91FF90EF9032
:102E60000895CF93DF93EC016115710559F0FB01D3
:102E700001900020E9F73197AF01461B570B0E94E4
:102E8000E81602C00E94D616CE01DF91CF910895B8
:102E9000FC01808191810C94433CFB01DC01119683
:102EA0001C921E9213961C921E92129715961C92BB
:102EB0001E9214978617970749F0608171816115FA
:102EC000710521F0448155810C94E8160895FC01A8
:102ED000118210821382128215821482611571058B
:102EE00051F0FB0101900020E9F73197AF01461B3B
:102EF000570B0C94E8160895DC01ED91FC91DB0171
:102F000014964D915C9115976D917C910280F3819F
:102F1000E02D09941F920F920FB60F9211242F9358
:102F20003F934F935F936F937F938F939F93AF9351
:102F3000BF93EF93FF9383E093E00E94EF15FF911F
:102F4000EF91BF91AF919F918F917F916F915F9121
:102F50004F913F912F910F900FBE0F901F9018959A
:102F60001F920F920FB60F9211242F938F939F935E
:102F7000EF93FF93E0911303F09114038081E091AC
:102F80001903F0911A0382FD12C0908180911C03F5
:102F90008F5F8F7320911D03821751F0E0911C0306
:102FA000F0E0ED5FFC4F958F80931C0301C08081A2
:102FB000FF91EF919F918F912F910F900FBE0F90E6
:102FC0001F901895CF93DF93282F30E0F901EE532F
:102FD000F64F8491F901EB56F64FD491F901EF5772
:102FE000F64FC491CC2391F081110E948316EC2FEF
:102FF000F0E0EE0FFF1FE359F64FA591B491EC916D
:10300000ED2381E090E021F480E002C080E090E0D8
:10301000DF91CF9108951F93CF93DF93282F30E056
:10302000F901EE53F64F8491F901EB56F64FD49126
:10303000F901EF57F64FC491CC23C9F0162F811137
:103040000E948316EC2FF0E0EE0FFF1FE958F64FB9
:10305000A591B4918FB7F894111105C09C91ED2FF3
:10306000E095E92302C0EC91ED2BEC938FBFDF914B
:10307000CF911F910895CF93DF9390E0FC01EB5621
:10308000F64F2491FC01EF57F64F8491882361F1AC
:1030900090E0880F991FFC01ED59F64FC591D4912E
:1030A000FC01E958F64FA591B491611109C09FB791
:1030B000F8948881209582238883EC912E230BC07D
:1030C000623061F49FB7F8943881822F8095832312
:1030D0008883EC912E2B2C939FBF06C08FB7F8945A
:1030E000E8812E2B28838FBFDF91CF9108958E30FA
:1030F00008F08E508770806480937C0080917A0005
:10310000806480937A0080917A0086FDFCCF809164
:1031100078002091790090E0922B08953FB7F894C1
:103120008091920290919302A0919402B0919502A5
:1031300026B5A89B05C02F3F19F00196A11DB11D12
:103140003FBFBA2FA92F982F8827820F911DA11D4D
:10315000B11DBC01CD0142E0660F771F881F991F8A
:103160004A95D1F708958F929F92AF92BF92CF92D6
:10317000DF92EF92FF926B017C010E948E184B014F
:103180005C01C114D104E104F104F1F00E948E1835
:10319000DC01CB0188199909AA09BB09883E934033
:1031A000A105B10570F321E0C21AD108E108F108C8
:1031B00088EE880E83E0981EA11CB11CC114D104B6
:1031C000E104F10419F7DDCFFF90EF90DF90CF908D
:1031D000BF90AF909F908F9008952FB7F894609113
:1031E0008E0270918F0280919002909191022FBF78
:1031F00008951F920F920FB60F9211242F933F93B1
:103200008F939F93AF93BF9380918E0290918F0283
:10321000A0919002B091910230918D0223E0230F92
:103220002D3720F40196A11DB11D05C026E8230FFE
:103230000296A11DB11D20938D0280938E02909362
:103240008F02A0939002B09391028091920290918C
:103250009302A0919402B09195020196A11DB11D17
:103260008093920290939302A0939402B09395025C
:10327000BF91AF919F918F913F912F910F900FBE72
:103280000F901F9018951F920F920FB60F92112456
:103290002F933F934F935F936F937F938F939F935E
:1032A000AF93BF93EF93FF93E0910201F09103017D
:1032B0000995FF91EF91BF91AF919F918F917F9170
:1032C0006F915F914F913F912F910F900FBE0F9093
:1032D0001F9018951F920F920FB60F9211242F93E3
:1032E0003F934F935F936F937F938F939F93AF938E
:1032F000BF93EF93FF93E0910001F09101010995D5
:10330000FF91EF91BF91AF919F918F917F916F91BD
:103310005F914F913F912F910F900FBE0F901F9093
:103320001895EF92FF920F931F93CF93DF938C0129
:103330007B01D42F81E08093DF0287E78093010334
:103340001092E00210920203FB01608180EA93E098
:103350000E94A5050E94871AF801E65BFF4F808353
:10336000811124C00D2F0D2E000C110B6D2F87E73E
:103370000E94E41A8091960290E020919702821BAD
:10338000910980179107E9F7C0E0CD176CF4870128
:103390000C0F111DC7FD1A9580EA93E00E94590594
:1033A000F8018083CF5FF1CF81E001C080E0DF9141
:1033B000CF911F910F91FF90EF9008950F931F935E
:1033C000CF93DF9300D0CDB7DEB78A01698342E0A7
:1033D000BE016F5F7F4F0E949119882359F0898148
:1033E00090E0982F88272A81822BF801918380838F
:1033F00081E003C0F801118210820F900F90DF91DD
:10340000CF911F910F9108958F929F92AF92BF928B
:10341000CF92DF92EF92FF920F931F93CF93DC0135
:103420001796CC911797662311F08C2F01C080E07E
:1034300018962C91189730E0220F331F2359364FDE
:1034400040E050E0BA01F90105911491F801908132
:103450009C23981315C06A017B019FEFC91AD90AF2
:10346000E90AF90A1D968D909D90AD90BC905097F9
:10347000481559056A057B0538F4B701A601E3CF65
:10348000342F252FCB0104C030E020E080E090E015
:10349000632F722FCF911F910F91FF90EF90DF90CC
:1034A000CF90BF90AF909F908F900895EF92FF9232
:1034B0000F931F93CF938C01FC01759684E0C0E0BD
:1034C00060FF02C09081C92B6695815031968111B1
:1034D000F7CF413011F4F8014489F8018585C82BF4
:1034E000C42B7801FEE0EF0EF11CF80162896C2B11
:1034F000C7010E94F910F801628960956C23C70129
:10350000CF911F910F91FF90EF900C94F9102091A3
:10351000020390910103213208F04AC08091DE023B
:103520008111FCCF32E03093DE0231E03093DD02D6
:103530003FEF3093DC021092DB022093DA02A1EE1F
:10354000B2E04AEB52E0FA013E2F341B321718F476
:103550003D913193F9CF1092B9022091B902990FA0
:10356000922B9093B9029091B802913061F410922D
:10357000B8029091B9029093BB009091BC0093FD6A
:10358000F8CF95EC01C095EE9093BC009091DE02CF
:103590009230E1F39091DC029F3F79F08091DC0260
:1035A000803241F08091DC02803331F084E005C04C
:1035B00081E003C082E001C083E01092E00210923B
:1035C00002031092DF0208959091DE029111FCCF68
:1035D000613208F060E291E09093DE029093DD02A8
:1035E0002FEF2093DC021092DB02260F2093DA02E9
:1035F0009093B9029091B902880F892B8093B902F8
:103600008091B802813061F41092B8028091B902C1
:103610008093BB008091BC0083FDF8CF85EC01C096
:1036200085EE8093BC008091DE028130E1F38091D1
:10363000DB02861710F46091DB02AAEBB2E028E906
:1036400032E0F9018E2F821B861718F48D91819339
:10365000F9CF1092970260939602862F08958F9269
:103660009F92AF92BF92EF92FF920F931F93CF93CF
:10367000DF93EC018C0103581F4FF8011182108277
:103680008B599F4F7C01F801808191819C012F5FB4
:103690003F4F318320830697B4F0CF57DF4FF701B8
:1036A00080819181A281B38188839983AA83BB831E
:1036B000DF91CF911F910F91FF90EF90BF90AF904E
:1036C0009F908F90089565E070E080E090E00E9408
:1036D000B3188A81882319F0CE010E94B512F70130
:1036E00080809180A280B38020E030E044E353E406
:1036F000C501B4010E945137882329F220E030E04F
:10370000A901C501B4010E945137882309F4BBCF38
:10371000C4CF009769F0FC0101900020E9F73197D0
:10372000AF01481B590BBC0183E093E00C947D155D
:1037300080E090E00895E0910303F091040301908C
:10374000F081E02D682F83E093E009948F929F929F
:10375000AF92BF920F931F93CF93DF93CDB7DEB796
:10376000A1970FB6F894DEBF0FBECDBF19A24230AD
:1037700008F44AE08E010F5D1F4F842E912CA12C7E
:10378000B12CA50194010E94DE38E62FB901CA01CF
:1037900001501109EA3014F4E05D01C0E95CD80180
:1037A000EC93232B242B252B61F7C8010E94891B46
:1037B000A1960FB6F894DEBF0FBECDBFDF91CF91BB
:1037C0001F910F91BF90AF909F908F900895CF93CE
:1037D000DF93EA0191E09093DF028093010310925E
:1037E000E0021092020380EA93E00E94A50569813D
:1037F00080EA93E00E94A505688180EA93E00E9438
:10380000A5050E94871A91E0811190E0892FDF9130
:10381000CF9108952F923F924F925F926F927F9235
:103820008F929F92AF92BF92CF92DF92EF92FF92D0
:103830000F931F93CF93DF9300D000D0CDB7DEB7A7
:103840006C017A8369834A01222E0C83422F4F71C7
:103850006DE6DC018C910E94E90A6C81C6010E9430
:10386000370C80E190E00E94AE3B2C01EE2039F055
:1038700080E190E00E94AE3B8B83392E02C01B8218
:10388000312CA12CB12CA814B90408F074C0C501C6
:1038900040968816990618F4F82CFA1802C080E1B0
:1038A000F82E8F2D90E020E031E0BC812B1B3109F8
:1038B0002817390714F4FB2EF194E981FA81EA0DF7
:1038C000FB1DEE2059F09B81A92FB32D8A2F891B58
:1038D0008F1530F484918D933196F8CFEB833F2E82
:1038E0002B81332D4F2D6FE6F60180810E94B00AA7
:1038F0006F2C712C4114510431F1422D4F716DE642
:10390000D6018C910E94E90A6C81C6010E94370C95
:1039100008EE13E092014F2D6FE6F60180810E94C0
:10392000F90AA301B2018B81932D0E94AA3D892B34
:1039300051F0C2010E94433CEE2039F18B81932D5E
:103940000E94433C22C0A60CB71CFC81FF0DFC83E7
:10395000A814B90408F097CFF11101C02394422DA7
:103960004F716DE6D6018C910E94E90A6C81C60107
:103970000E94370C88CFC2010E94433CEE2039F0F0
:103980008B81932D0E94433C02C080E001C081E006
:103990000F900F900F900F90DF91CF911F910F918B
:1039A000FF90EF90DF90CF90BF90AF909F908F905F
:1039B0007F906F905F904F903F902F900895EF927F
:1039C000FF920F931F93CF93DF931F92CDB7DEB774
:1039D0007A0189019E012F5F3F4F41E00E94F90A61
:1039E000882339F029812E7730E035952795F70126
:1039F00020830F90DF91CF911F910F91FF90EF9057
:103A000008950F931F93CF93DF938C01C0E0D0E014
:103A1000F801EC0FFD1F6491662371F0E091030340
:103A2000F09104030190F081E02D83E093E009958B
:103A3000892B11F02196ECCF8BE691E00E94891B37
:103A40008C0F9D1FDF91CF911F910F9108951092C0
:103A50009702109296021092E002109202031092C6
:103A6000DE0281E08093DD021092B80261E082E123
:103A70000E940B1861E083E10E940B18E9EBF0E073
:103A800080818E7F808380818D7F808388E4809396
:103A9000B80085E48093BC000895CF92DF92EF9246
:103AA000FF92CF93DF936C01990FEE08FF08F7FEAA
:103AB00012C08DE20E949B1BEC0166277727CB0189
:103AC0006C197D098E099F094AE00E94A61B7C01A2
:103AD000EC0EFD1E06C04AE0C701B6010E94A61BFF
:103AE0007C018BE691E00E94891B8E0D9F1DDF916A
:103AF000CF91FF90EF90DF90CF9008958091C80311
:103B00009091C9038A30910578F49C0121503109C4
:103B10003093C9032093C803880F991FFC01EE540A
:103B2000FC4F2281338102C020E030E07091B2036B
:103B30006091B3038091C8039091C903DC01AA0F7F
:103B4000BB1F40E050E021153105C9F0425051093A
:103B50008A30910548F09093C9038093C80330934D
:103B6000B3032093B20308950197FA01EA0FFB1FF4
:103B7000EE54FC4F722F632F24813581E4CF909354
:103B8000C9038093C8037093B2036093B30308958D
:103B90008B3494F0E091E103F091E2033097A1F0CF
:103BA000682F880F770BA091B203B091B3031696DC
:103BB0008D919C9117970994E82FEE0FFF0BE65318
:103BC000FC4F80819181089580E090E008958F926C
:103BD0009F92AF92BF92CF92DF92EF92FF920F939C
:103BE0001F93CF93DF93CDB7DEB7C054D1400FB64C
:103BF000F894DEBF0FBECDBF8C010E94ED18F80116
:103C0000C184D284E384F4849B01AC012C193D0966
:103C10004E095F0969017A0130EDC31637E0D3061A
:103C2000E104F10410F48189B4C0F801618772875E
:103C3000838794871482138212821182108261E03A
:103C400085810E940B186AEF70E080E090E00E948E
:103C5000B31861E0F80185810E943B1860E0F8012B
:103C600085810E940B1864E170E080E090E00E9482
:103C7000B318F89461E0F80185810E940B188BE974
:103C800090E00197F1F762E0F80185810E943B180E
:103C900083E290E00197F1F760E0C8010E94041A06
:103CA000672B682B692B21F4F801118A789442C0A4
:103CB00061E0C8010E94041A672B682B692BA1F3ED
:103CC0009E012F5F3F4F79015E013FEBA31A3EEF4C
:103CD000B30A670160E0C8010E94041AF60160831C
:103CE00071838283938361E0C8010E94041AF60104
:103CF0006483758386839783F8E0CF0ED11CCA1442
:103D0000DB0441F7789420E030E0F70140815181F5
:103D10006281738184809580A680B78041155105AA
:103D20006105710529F081149104A104B10421F405
:103D3000F801118A80E02DC0F90183E0F595E7953F
:103D40008A95E1F7E00FF11F8081880F481559052A
:103D50006A057B0508F4816080832F5F3F4FF8E0A0
:103D6000EF0EF11C2832310581F6F801248130E094
:103D70004081818190E0840F911D4281840F911DCB
:103D80004381840F911D99272817390789F681E00F
:103D9000818BC05CDE4F0FB6F894DEBF0FBECDBF87
:103DA000DF91CF911F910F91FF90EF90DF90CF9017
:103DB000BF90AF909F908F900895FC01892B41F0A8
:103DC00082858F3F11F00C94C81D848195810895E0
:103DD0000895CF93DF93EC0181E08093DF0287E7C2
:103DE000809301031092E0021092020342E050E03F
:103DF00080EA93E00E9475050E94871A982FC65B9F
:103E0000DF4F888381E0911180E0DF91CF910895A9
:103E1000CF92DF92EF92FF92CF93DF93EC010E945B
:103E2000E71D882381F18E818B3031F160F185515E
:103E3000823048F5688170E080E090E00E9456375B
:103E400020E030E040E853E40E94B7376B017C018A
:103E50008981682F70E080E090E00E9458379B01D4
:103E6000AC01C701B6010E9410392DEC3CEC4CECC2
:103E70005DE30E94B7370BC0688170E080E090E09E
:103E80000E94563704C060E070E080EC9FE7DF914D
:103E9000CF91FF90EF90DF90CF900895CF92DF9277
:103EA000EF92FF921F93CF93DF93EC010E94E71DE7
:103EB0008823B1F18E818B3029F090F185518230C9
:103EC00040F02EC06A8170E080E090E00E9456379A
:103ED0002BC01A81612F6F7770E080E090E00E9424
:103EE000583720E030E040E853E40E94B7376B01D8
:103EF0007C018B81682F70E080E090E00E94583751
:103F00009B01AC01C701B6010E9410392DEC3CECBD
:103F10004CEC5DE30E94B73717FF06C0905804C011
:103F200060E070E080EC9FE7DF91CF911F91FF9000
:103F3000EF90DF90CF900895CF93DF93CDB7DEB7AA
:103F4000C65BD1090FB6F894DEBF0FBECDBF789423
:103F500084B5826084BD84B5816084BD85B582608E
:103F600085BD85B5816085BD80916E00816080933F
:103F70006E001092810080918100826080938100A8
:103F800080918100816080938100809180008160B8
:103F9000809380008091B10084608093B100809113
:103FA000B00081608093B00080917A00846080933B
:103FB0007A0080917A00826080937A0080917A0002
:103FC000816080937A0080917A00806880937A0083
:103FD0001092C100E0911303F091140382E08083FA
:103FE000E0910F03F09110031082E0911103F09122
:103FF00012038FEC808310921B03E0911703F09162
:10400000180386E08083E0911503F0911603808108
:1040100080618083E0911503F091160380818860B0
:104020008083E0911503F09116038081806880837E
:10403000E0911503F091160380818F7D808382EBE0
:1040400090E00E94011D8EE69EE09093E003809335
:10405000DF0382EE9DE09093E2038093E10321E889
:1040600030E02C0F3D1F2D5F3F4FC855DF4F398388
:104070002883C85AD040CC54DF4F39832883C45B8F
:10408000D04020912F023091300280912D029091EA
:104090002E022817390769F10E94F60F80912D0230
:1040A00090912E02009759F0019719F51A82198202
:1040B0001C821B821E821D8269EA79E00EC060EDBF
:1040C00077E080E090E00E94B3181A8219821C8287
:1040D0001B821E821D8265EB79E0CE0101960E9453
:1040E0000917CE0101960E940410CE0101960E948C
:1040F000481780912D0290912E0290933002809368
:104100002F020E94BE0F809308018F3F31F483E09D
:1041100093E00E94B71580930801809108018E37C3
:10412000B1F18F3FA1F1082E000C990B0E944D1D9B
:1041300060910801062E000C770B6B5A7E4FCE0162
:1041400001960E946717CE0101960E940410CE01CD
:1041500001960E94481780910801803391F08133C5
:10416000B1F481E08093070181E090E090932E020A
:1041700080932D0264EF71E080E090E00E94B3181C
:1041800006C01092070110922E0210922D0280910B
:104190002D0290912E02019711F00C9412336AE5D2
:1041A00071E08CEA93E00E9431177090070177204C
:1041B000D9F18FEF9FEF909306018093050181E085
:1041C000809304016DE671E0CE0101960E946717AD
:1041D0001092F1011092F0010E94ED186B01770F1F
:1041E000EE08FF0862E583E093E00E94101662E3A8
:1041F00070E080E090E00E94B31883E093E00E94BA
:10420000D915892B11F00C9416330E94ED18DC019E
:10421000CB018C199D09AE09BF0988389341A105CE
:10422000B10500F30C9416336DE671E0CE018F56A4
:104230009F4F0E9467178091DE03882311F40C942E
:10424000F032D0900401DD2009F4C1C08091DE037A
:10425000882309F499C08091B2039091B3030E941E
:10426000980C882309F473C0A091B203B091B303F2
:10427000E091DF03F091E00316968D919C911797E2
:1042800009954091B2035091B303DA01882359F1A3
:1042900016962D913C911797F901A289B38916962C
:1042A0008D919C911797892B09F451C08091C80377
:1042B0009091C90301969093C9038093C803880F16
:1042C000991FFC01EE54FC4F53834283DA0113968D
:1042D0003C932E93129715961C921E921497F901F7
:1042E000828993892EC01696ED91FC911797848947
:1042F0009589009709F44AC0DC0116968D919C912E
:104300001797892B09F442C08091C8039091C90383
:1043100001969093C9038093C803880F991F8E5408
:104320009C4FDC0113965C934E931297DA0113961F
:10433000FC93EE93129715961C921E921497848903
:1043400095899093B3038093B2030E94280D8091C6
:10435000B2039091B3030E94980CE091B203F091E4
:10436000B303882311F40C945434A681B781529678
:104370000D90BC91A02D16968D919C911797892B2D
:1043800009F064CF0C945434E0E0F0E0F0932C0298
:10439000E0932B02309709F4FCC02080318010920A
:1043A000040180910501909106012816390629F033
:1043B00010922A0210922902EFC080912902909156
:1043C0002A02019690932A0280932902E5C0209048
:1043D000050130900601C101C397099708F0DCC0C0
:1043E000E0901F02F0902002F701808591858330D4
:1043F000910519F0049779F023C08281938124817B
:10440000358182179307E4F082819381821B930B9D
:104410009383828312C0F701428153818481958105
:1044200022273327281B390B241735074CF022810C
:104430003381820F931F93838283C7010E940E10E2
:10444000D70150968D919C915197FC01E757FF4FF2
:104450002081222309F486C00E943115F7012088AB
:104460003188F101EF57FF4F4080518062807380A7
:10447000349680809180A280B38093018201B5013F
:10448000A401C1010E941A0997FF03C0919581956B
:104490009109049764F4C7010E940E10D701509649
:1044A000ED91FC915197E757FF4F10825BC095014A
:1044B0008401B301A201C1010E941A098C01F70114
:1044C0008681978197FF04C01016110634F045C00D
:1044D000892B09F442C017FF40C0C7010E940E108B
:1044E000D70118962D913C9119971C968D919C910E
:1044F0001D9717FF1BC01B963C932E931A9725E020
:1045000030E019963C932E93189721E030E0FC019F
:10451000318320830E943A0D62E070E0D7011E963D
:104520008D919C911F970E94470D17C0F70133870B
:10453000228726E030E03187208762E070E00E9429
:10454000470DD7011E968D919C911F9721E030E079
:10455000FC01318320830E943A0DD70117961C93EA
:104560000E931697D7015096ED91FC915197E7570E
:10457000FF4F8081811109C0DD24D39418968D915D
:104580009C911997029709F0D12CD09204010C94B8
:10459000F032E2E02E2E312C80912B0290912C02F1
:1045A0000E94DD1E6C01E0912B02F0912C023097ED
:1045B000A1F083858F3F49F00E94C81DCC55DF4F85
:1045C00099838883C45AD04008C026813781CC554E
:1045D000DF4F39832883C45AD04037FE02C00C9481
:1045E0006B3234E82316310411F40C948F2F0CF045
:1045F000EFC05FE62516310411F40C949E2D0CF0EB
:1046000066C094E32916310411F40C94D72BA4F45A
:10461000B2E32B16310409F4C1C114F00C947C2BC5
:10462000F2E02F16310411F00C946B320E947E1DC3
:104630001092DE030C946B322CE32216310411F439
:104640000C944A2D44F445E32416310411F40C94DF
:10465000E42C0C946B325DE32516310411F40C94B8
:104660008D2D8EE62816310411F00C946B320091DA
:104670002B0210912C02D80114964D915C91159744
:1046800061E070E012968D919C9113970E94580EF4
:10469000F801828193810E94AE0D7C0186E090E05A
:1046A0000E94AE3B6C01D80114961C9161E0812FF1
:1046B0000E943B18F6011083D0922402C09223027C
:1046C000D7011896DC92CE9217970C946B329BE729
:1046D0002916310411F40C944F2E0CF057C0B8E792
:1046E0002B16310411F40C94F32D0CF03FC0F0E7BD
:1046F0002F16310411F00C946B32E0912B02F091E3
:104700002C02828193810E94AE0DDC0117960D91DF
:104710001C911897109324020093230228EE33E093
:10472000CC55DF4FA881B981C45AD0400E94933B39
:104730002B013C017601EE0CFF1CEE0CFF1CB5E0DA
:10474000EB1AF108C601880F991F9C01990F440BC1
:10475000550BC056DF4F288339834A835B83C05A89
:10476000D040812C912C54010C94ED2D29E7221678
:10477000310411F40C94432E3AE72316310411F05E
:104780000C946B320E94F60F0C946B324DE724169A
:10479000310411F40C94342F14F40C94972E82E805
:1047A0002816310411F40C94782F93E8291631045B
:1047B00011F00C946B32E0912B02F0912C0261E02D
:1047C00070E0828193810E94D00D61E00C942D32C3
:1047D000A5EA2A16310411F40C949D3194F5E6E90A
:1047E0002E16310411F40C946730A4F42CE8221630
:1047F000310411F40C949B2F31E92316310411F488
:104800000C94413047E82416310411F00C946B32BB
:104810000C949D3158E92516310411F40C942D3176
:1048200014F40C940D3199E92916310411F40C9407
:104830005231AAE92A16310411F40C9479310C94FE
:104840006B32BAEC2B16310411F40C942B320CF0B1
:1048500081C0F0EB2F16310411F40C94A3310CF04D
:104860006AC03AEA2316310411F00C946B32C090FE
:104870002B02D0902C02F601828193810E94AE0D12
:104880007C0182E190E00E94AE3B8C01D60116963D
:104890002C91169714968D919C911597F80185830C
:1048A00026839927FC01EB56F64FE491D801179621
:1048B000EC931797FC01EF57F64FE4911896EC93A1
:1048C000189720E83EE340E050E01D962D933D937D
:1048D0004D935C93509710931A0200931902F701BD
:1048E00010870783D60114964D915C91159761E06E
:1048F00070E012968D919C9113970E94580EF601CC
:104900004681578162E070E0828193810E94580E57
:1049100062E0D80115968C910E943B1820E338EF95
:104920004FEF5FEFD80119962D933D934D935C9314
:104930001C970C946B3248EC2416310411F40C943F
:10494000263259EC2516310411F00C946B3260E0DC
:104950000C94273286EE2816310411F40C94303270
:104960004CF4ABEC2A16310411F00C946B3260E07D
:104970000C942C32B7EE2B16310411F40C94403207
:10498000EAEF2E16310411F00C946B32B601DD0CF7
:10499000880B990B0E94B3180C946B3280912902FA
:1049A00090912A02E0902B02F0902C02D701009700
:1049B00099F414964D915C91159761E070E0129610
:1049C0008D919C9113970E94580EF7014681578153
:1049D00062E070E00C946430019799F414964D9164
:1049E0005C91159763E070E012968D919C911397FE
:1049F0000E94580EF7014681578164E070E00C94E4
:104A0000643012968D919C9113970E94AE0D8C018B
:104A100082E190E00E94AE3BC056DF4F99838883CD
:104A2000C05AD040FC0113821282909320028093DE
:104A30001F02D80118969C938E931797F701048054
:104A4000F581E02DC455DF4FF983E883CC5AD0407F
:104A5000D70112960D911C91139764E070E0C80184
:104A60000E94D00D6C0163E070E0C8010E94D00D7F
:104A70007C0162E070E0C8010E94D00D5C0161E041
:104A800070E0C8010E94D00D8C0188E090E00E9487
:104A9000AE3BC056DF4FE881F981C05AD0409587C0
:104AA00084879501A80161E070E00E946D0D88E0A7
:104AB00090E00E94AE3BC056DF4FA881B981C05A3A
:104AC000D0401F969C938E931E979601A70162E09B
:104AD00070E00E946D0D8AE890E00E94AE3B2C01D0
:104AE000FC01E75BFF4F80E090E0A0E8BFE380833C
:104AF0009183A283B3831482158216821782108653
:104B00001186128613861486158616861786709669
:104B100010821182128213821482158216821782E9
:104B2000108611861286138683E190E00E94AE3BC8
:104B300028E6FC012083D2018D939C93F201E35877
:104B4000FF4F118210823C961082F2011282EB57C5
:104B5000FF4F108211821282138292012F583F4F11
:104B6000C655DF4F39832883CA5AD04080E090E091
:104B7000A8ECB2E4F90180839183A283B383C05689
:104B8000DF4FA881B981C05AD04051965C924E92B5
:104B900050970E94271D88E18093B800F201E080C1
:104BA000F18001E023E042E06BE6D7018C910E94A6
:104BB000B20B00E022E044E06BE1F70180810E944B
:104BC000B20B22E044E06CE1D7018C910E94B20B61
:104BD00020E046E06BE6F70180810E94FD0BD201E8
:104BE0000D911C91A8014F5F5F4F28EE33E065E700
:104BF000F80180810E94DF1CD80111968C918433CA
:104C000019F08AE499E002C086E599E00E94011D4E
:104C1000F201C080D18021E047E06BE6D6018C91A3
:104C20000E94FD0B6EE170E080E090E00E94B318FE
:104C300020E046E06BE6F60180810E94FD0B40E734
:104C40006DE6D6018C910E94E90A66E0C6010E94D9
:104C5000370C40E06DE6F60181918F010E94E90A70
:104C600028EE33E0A80160E0D6018C910E94DF1CA1
:104C7000F601F181C156DF4FF883CF59D04028EEBD
:104C800033E0A80161E0D6018C910E94DF1CF6019F
:104C9000F181CA55DF4FF883C65AD04028EE33E081
:104CA000A80162E0D6018C910E94DF1CF6016180B0
:104CB0004FE765E280810E94E90A20E045E06AE66C
:104CC000D6018C910E94FD0B48E665E2F6018081D9
:104CD0000E94E90A21E041E06AE6D6018C910E9437
:104CE000FD0B64E170E080E090E00E94B318EE24D8
:104CF000E39400E020E049E857E061EC71E0C60190
:104D00000E940A1C882309F401C388E090E00E94F5
:104D1000AE3B782EF92EA12CB12CF501EF5FFE4FA2
:104D20002491F501EE5FFE4F04914501B3E08B0E37
:104D3000911CF501ED5FFE4F1491112391F1133099
:104D400090F0612F70E0872D9F2DCA54DF4F28838C
:104D5000C65BD0400E94DB3C782EF92ECA54DF4F50
:104D60002881C65BD040A72DBF2D80E090E0A12E0A
:104D7000B12C8A159B0548F4F401E80FF91FEF5F89
:104D8000FE4FE491ED930196F4CFE12CA501672D40
:104D90007F2DC6010E940A1CA80CB91C811117C0E6
:104DA00010C0E4E0AE0EB11CF401EF5FFE4FE491E1
:104DB000E13039F442E368E3D6018C910E94E90ABC
:104DC00006C0872D9F2D0E94433C82E0A0C2B0EC1C
:104DD000AB16B10408F4A1CF872D9F2D0E94433C50
:104DE00003E023E042E06BE6F60180810E94B20B13
:104DF00042E168E3D6018C910E94E90A44E069E14E
:104E0000F60180810E94E90A01E023E045E06AE1C1
:104E1000D6018C910E94B20B03E023E042E06AE1EC
:104E2000F60180810E94B20B22E044E06BE1D601E2
:104E30008C910E94B20B43E060E7F60180810E94F2
:104E4000E90A40E061E7D6018C910E94E90A20E07E
:104E500040E060E0F60180810E94FD0BC156DF4F0B
:104E60000881CF59D04026E046E060E0D6018C9121
:104E70000E94B20BCA55DF4F0881C65AD04026E0C7
:104E800046E061E0F60180810E94B20B062D26E02B
:104E900046E062E0D6018C910E94B20BA12CB12CAD
:104EA000F501EE52FF4FE491A1E8B0E0AC0FBD1F59
:104EB000AA0DB11DEC9381E08A0DBFEFAB1ABB0ABE
:104EC000E3E0EA1568F7CD57DF4F4881C358D0407B
:104ED00050E09A012E5F3F4F90E02817390704F702
:104EE000E12CCE57DF4F0881C258D040CF57DF4F5B
:104EF0002881C158D040C855DF4F68817981C85A90
:104F0000D040C6010E940A1C80E0F501EE52FF4F1E
:104F1000E491A1E8B0E0AC0FBD1FA80FB11DEC9368
:104F20008F5FFFEFAF1ABF0A843078F3CD57DF4FA2
:104F30004881C358D04050E0BA016E5F7F4F282FA0
:104F400030E0621773070CF7E12CCE57DF4F088172
:104F5000C258D040CF57DF4F2881C158D04061E8B8
:104F600070E06C0F7D1F6D5F7F4FC6010E940A1CB1
:104F7000C6010E946B0CC6010E944F0C482FBE0157
:104F80006F5F7F4FC6010E943D0C42E06FE1D6018A
:104F90008C910E94E90A4CE961E2F60180810E944D
:104FA000E90A40E560E2D6018C910E94E90A40E0FE
:104FB00062E2F60180810E94E90AC6010E946B0C40
:104FC00021E046E06AE6D6018C910E94FD0B21E0CB
:104FD00047E06AE6F60180810E94FD0B21E043E094
:104FE0006AE6D6018C910E94FD0B80E0F501EE523D
:104FF000FF4FE491A1E8B0E0AC0FBD1FA80FB11DB9
:10500000EC938F5FBFEFAB1ABB0A843078F3CD57B8
:10501000DF4F4881C358D04050E0BA016E5F7F4FE8
:10502000282F30E0621773070CF7E12CCE57DF4FC3
:105030000881C258D040CF57DF4F2881C158D04097
:1050400061E870E06C0F7D1F6D5F7F4FC6010E94AD
:105050000A1C80E0F501EE52FF4FE491A1E8B0E0B8
:10506000AC0FBD1FA80FB11DEC938F5FEFEFAE1A11
:10507000BE0A843078F3CD57DF4F4881C358D04003
:1050800050E0BA016E5F7F4F282F30E06217730740
:105090000CF7E12CCE57DF4F0881C258D040CF57D4
:1050A000DF4F2881C158D04061E870E06C0F7D1F50
:1050B0006D5F7F4FC6010E940A1C80E0F501EE5231
:1050C000FF4FE491A1E8B0E0AC0FBD1FA80FB11DE8
:1050D000EC938F5FFFEFAF1ABF0A843078F3CD57A0
:1050E000DF4F4881C358D04050E0BA016E5F7F4F18
:1050F000282F30E0621773070CF7E12CCE57DF4FF3
:105100000881C258D040CF57DF4F2881C158D040C6
:1051100061E870E06C0F7D1F6D5F7F4FC6010E94DC
:105120000A1CC6010E944F0C83309105D0F3482F12
:10513000BE016F5F7F4FC6010E943D0C80E0F5010C
:10514000EE52FF4FE491A1E8B0E0AC0FBD1FA80FF5
:10515000B11DEC938F5F2FEFA21AB20A843078F35F
:10516000CD57DF4F5881C358D040CA55DF4F5883C1
:10517000C65AD040652E712CA3014E5F5F4F282F79
:1051800030E042175307DCF6CE57DF4F9880C25805
:10519000D040CF57DF4F5881C158D040C156DF4F64
:1051A0005883CF59D040452F4F716DE6D6018C9171
:1051B0000E94E90A692DC6010E94370CE12CF12CEE
:1051C000E614F70408F04CC0C7014096681679064B
:1051D00038F4CA55DF4F8880C65AD0408E1802C0B6
:1051E00070E1872E882D90E020E031E02919310907
:1051F0002817390714F4892C8194CC54DF4F288167
:105200003981C45BD0402E0D3F1D08EE13E0482DC0
:105210006FE6F60180810E94F90AE80CF11C980CF7
:10522000E614F70468F691100BC0C156DF4F5881A1
:10523000CF59D0405F5FC156DF4F5883CF59D04020
:10524000C156DF4F4881CF59D0404F716DE6D6012E
:105250008C910E94E90A692DC6010E94370CB0CFDB
:10526000C6010E944F0C83309105D0F3482FBE0138
:105270006F5F7F4FC6010E943D0CF501EE52FF4F5C
:1052800080E09491A1E8B0E0AC0FBD1FA80FB11D64
:105290009C938F5F843010F43196F3CFCD57DF4F5E
:1052A0004881C358D04050E0BA016E5F7F4F282F2D
:1052B00030E06217730784F7E12CCE57DF4F088187
:1052C000C258D040CF57DF4F2881C158D040C85571
:1052D000DF4F68817981C85AD040C6010E940A1CFC
:1052E00020E047E06AE6F60180810E94FD0B8AE239
:1052F00090E0D60113969C938E931297C6010E945C
:105300006B0CC6010E94720C80E001C081E0F201CA
:1053100084830190F081E02D80812CED30E0C35634
:10532000DF4F39832883CD59D040AE0143565F4FBC
:1053300063E10E94E71BD201ED91FC9180812CE496
:1053400030E0C556DF4F39832883CB59D040AE01BA
:1053500045565F4F65E10E94E71BD201ED91FC913C
:1053600080812BEA3FEFC756DF4F39832883C95925
:10537000D040AE0147565F4F67E10E94E71BD20164
:10538000ED91FC9180812CEF36E0C956DF4F3983D7
:105390002883C759D040AE0149565F4F6AE00E944A
:1053A000E71BF20184818823E1F0C455DF4FE881D7
:1053B000F981CC5AD040C056DF4FA881B981C05A7C
:1053C000D040ED93FC9300912B0210912C02D80158
:1053D00014968D919C911597009711F40C946B3253
:1053E0007AC10190F081E02D21E047E06AE68081FA
:1053F0000E94FD0BF201808191810E94720CD2010A
:1054000013968C93139781E012968C931297ED91DB
:10541000FC9111978281938116969C938E93159798
:1054200068EC70E080E090E00E94B318C2010E9436
:105430003115F201EB59FF4FCA55DF4FF983E8836D
:10544000C65AD04092012F583F4FC255DF4F398383
:105450002883CE5AD040A2014B585F4FC055DF4F32
:1054600059834883C05BD040C20187599F4FCE54B7
:10547000DF4F99838883C25BD040320199E7690E80
:10548000711C820103591F4FCA55DF4FA881B98192
:10549000C65AD040CD90DD90ED90FC90A7019601CA
:1054A000C255DF4FE881F981CE5AD04060817181C9
:1054B000828193810E940F394B015C0120E030E032
:1054C000A9010E94BD3A18165CF42DEC3CEC4CECA2
:1054D0005DE3C501B4010E94BD3A18165CF065CFCA
:1054E0002DEC3CEC4CEC5DEBC501B4010E94513756
:1054F00087FF5BCF20E030E0A901C701B6010E9421
:105500005137882309F451CFC655DF4FA881B9819F
:10551000CA5AD040CD92DD92ED92FC921397CE54B0
:10552000DF4FE881F981C25BD04080819181A28107
:10553000B381C055DF4FE881F981C05BD0408083E3
:105540009183A283B383F80180819181A281B38189
:10555000F30180839183A283B383A7019601C701DE
:10556000B6010E94383B882319F08FE591E01AC0FC
:1055700046015701E894B7F82FEF3FEF4FE75FE799
:10558000C501B4010E94383B81110FC02FEF3FEFDE
:105590004FE75FE7C501B4010E94513718162CF49C
:1055A00083E691E00E94891B88C02FEF3FEF4FE711
:1055B0005FE4C701B6010E94BD3A18161CF487E6E5
:1055C00091E0F0CF2FEF3FEF4FE75FECC701B6015F
:1055D0000E94513787FDF3CF20E030E0A901C701D9
:1055E000B6010E94513787FF07C08DE20E949B1BC6
:1055F000F7FAF094F7F8F0946AE0B62E60E070E005
:1056000080E09FE320E030E040E251E40E94EE3988
:10561000BA94B110F7CF9B01AC01C701B6010E944B
:1056200010396B017C010E94673A4B015C010E94BA
:1056300056379B01AC01C701B6010E940F396B01BF
:105640007C014AE0C501B4010E94A61B8EE20E94C3
:105650009B1BFBE0C156DF4FF883CF59D040C156AA
:10566000DF4F2881CF59D0402150C156DF4F2883CA
:10567000CF59D040222309F120E030E040E251E44C
:10568000C701B6010E94B7376B017C010E94673ADF
:105690004B01A12CB12C4AE0C501B4010E94A61B0C
:1056A000C501B4010E9456379B01AC01C701B60188
:1056B0000E940F396B017C01D2CF8BE691E00E94F2
:1056C000891B68EC70E080E090E00E94B318C20192
:1056D0000E943115D9CE60E00E943B18D801149683
:1056E0008D919C9115978230910509F4DFC603973F
:1056F00009F0F1C60C94593480912B0290912C0240
:105700000E94DD1E7C0100911F0210912002823058
:10571000910551F18430910509F445C0019709F0D4
:10572000DAC6D80113961C921E92129718968D9184
:105730009C9119971B969C938E931A971996FC929D
:10574000EE9218971C968D919C911D97FC01F18209
:10575000E0820E943A0DD8011E968D919C911F9770
:10576000FC01F182E082AEC0D80113961C921E9219
:10577000129718968D919C9119971B969C938E93D6
:105780001A9719961C921E92189762E070E01C9668
:105790008D919C911D970E94470D62E070E0F80189
:1057A000868597850EC1C8010E940E1094C6F5E04B
:1057B000CF16D10431F026E0C216D10409F485C019
:1057C0008AC600911F0210912002D80118968D916F
:1057D0009C9119971B969C938E931A9786E090E064
:1057E00019969C938E9318975096ED90FC90519734
:1057F000F7018281882319F0C7010E94B512F701D1
:10580000EB59FF4F80809180A280B3807C9680828C
:105810009182A282B382CC55DF4F28813981C45A4C
:10582000D040B901330F880B990B0E9458379B0168
:10583000AC01C501B4010E9410394B015C01670144
:1058400035E8C30ED11CD6016D937D938D939C9347
:10585000139720E030E044E353E40E94BD3A181669
:105860006CF420E030E044EB53E4C501B4010E9445
:105870000F39F6016083718382839383F701E757C1
:10588000FF4F81E08083D80118968D919C911997E4
:105890001B969C938E931A9786E090E019969C93A2
:1058A0008E93189762E070E01C968D919C911D97E5
:1058B0000E94470DF8018685978521E030E0DC01E4
:1058C0002D933C930E943A0D06C600911F02109141
:1058D0002002F801808591859387828785E090E09A
:1058E00091878087E088F188D70112968C91882370
:1058F00019F0C7010E94B512F701EB59FF4F8080E4
:105900009180A280B3807C9680829182A282B382B1
:10591000CC55DF4FE881F981C45AD040BF01FF0F59
:10592000880B990B0E9458379B01AC01C501B4014B
:105930000E940F394B015C016701F5E8CF0ED11CC5
:10594000D6016D937D938D939C93139720E030E067
:1059500044E353EC0E94513787FF0DC020E030E054
:1059600044EB53E4C501B4010E941039F601608391
:10597000718382839383F701E757FF4F81E0808330
:10598000D80118968D919C9119971B969C938E9394
:105990001A9785E090E019969C938E9318971C9621
:1059A0008D919C911D9721E030E0FC013183208393
:1059B0000E943A0D62E070E0D8011E968D919C9194
:1059C0001F970E94470D87C5B1E0CB16D10429F07F
:1059D000E2E0CE16D10481F17EC500911F02109144
:1059E0002002D8011A962D913C911B9718968D9103
:1059F0009C9119972817390721F013961C921E9233
:105A00001297F80184859585EE24E394F12CDC014E
:105A1000ED92FC920E943A0DF80186859785DC0193
:105A2000ED92FC920E943A0DF80180859185938752
:105A3000828783E090E02BC000911F02109120022A
:105A4000D8011A962D913C911B9718968D919C9197
:105A500019972817390721F013961C921E92129756
:105A600062E070E0F801848595850E94470D62E050
:105A700070E0D8011E968D919C911F970E94470D52
:105A8000F801808591859387828784E090E09187F3
:105A9000808721C500912B0210912C02D801149609
:105AA0004D915C91159761E070E012968D919C91FB
:105AB00013970E94580EF8014681578162E070E00A
:105AC000828193810E94580ED80112968D919C91EB
:105AD00013970E94AE0D7C0188E090E00E94AE3BDF
